{
  "contractName": "FlashBot",
  "abi": [
    {
      "inputs": [
        {
          "internalType": "address",
          "name": "_WETH",
          "type": "address"
        }
      ],
      "stateMutability": "nonpayable",
      "type": "constructor"
    },
    {
      "anonymous": false,
      "inputs": [
        {
          "indexed": true,
          "internalType": "address",
          "name": "token",
          "type": "address"
        }
      ],
      "name": "BaseTokenAdded",
      "type": "event"
    },
    {
      "anonymous": false,
      "inputs": [
        {
          "indexed": true,
          "internalType": "address",
          "name": "token",
          "type": "address"
        }
      ],
      "name": "BaseTokenRemoved",
      "type": "event"
    },
    {
      "anonymous": false,
      "inputs": [
        {
          "indexed": true,
          "internalType": "address",
          "name": "previousOwner",
          "type": "address"
        },
        {
          "indexed": true,
          "internalType": "address",
          "name": "newOwner",
          "type": "address"
        }
      ],
      "name": "OwnershipTransferred",
      "type": "event"
    },
    {
      "anonymous": false,
      "inputs": [
        {
          "indexed": true,
          "internalType": "address",
          "name": "to",
          "type": "address"
        },
        {
          "indexed": true,
          "internalType": "uint256",
          "name": "value",
          "type": "uint256"
        }
      ],
      "name": "Withdrawn",
      "type": "event"
    },
    {
      "stateMutability": "nonpayable",
      "type": "fallback"
    },
    {
      "inputs": [],
      "name": "owner",
      "outputs": [
        {
          "internalType": "address",
          "name": "",
          "type": "address"
        }
      ],
      "stateMutability": "view",
      "type": "function"
    },
    {
      "inputs": [],
      "name": "renounceOwnership",
      "outputs": [],
      "stateMutability": "nonpayable",
      "type": "function"
    },
    {
      "inputs": [
        {
          "internalType": "address",
          "name": "newOwner",
          "type": "address"
        }
      ],
      "name": "transferOwnership",
      "outputs": [],
      "stateMutability": "nonpayable",
      "type": "function"
    },
    {
      "stateMutability": "payable",
      "type": "receive"
    },
    {
      "inputs": [],
      "name": "withdraw",
      "outputs": [],
      "stateMutability": "nonpayable",
      "type": "function"
    },
    {
      "inputs": [
        {
          "internalType": "address",
          "name": "token",
          "type": "address"
        }
      ],
      "name": "addBaseToken",
      "outputs": [],
      "stateMutability": "nonpayable",
      "type": "function"
    },
    {
      "inputs": [
        {
          "internalType": "address",
          "name": "token",
          "type": "address"
        }
      ],
      "name": "removeBaseToken",
      "outputs": [],
      "stateMutability": "nonpayable",
      "type": "function"
    },
    {
      "inputs": [],
      "name": "getBaseTokens",
      "outputs": [
        {
          "internalType": "address[]",
          "name": "tokens",
          "type": "address[]"
        }
      ],
      "stateMutability": "view",
      "type": "function"
    },
    {
      "inputs": [
        {
          "internalType": "address",
          "name": "token",
          "type": "address"
        }
      ],
      "name": "baseTokensContains",
      "outputs": [
        {
          "internalType": "bool",
          "name": "",
          "type": "bool"
        }
      ],
      "stateMutability": "view",
      "type": "function"
    },
    {
      "inputs": [
        {
          "internalType": "address",
          "name": "pool0",
          "type": "address"
        },
        {
          "internalType": "address",
          "name": "pool1",
          "type": "address"
        }
      ],
      "name": "flashArbitrage",
      "outputs": [],
      "stateMutability": "nonpayable",
      "type": "function"
    },
    {
      "inputs": [
        {
          "internalType": "address",
          "name": "sender",
          "type": "address"
        },
        {
          "internalType": "uint256",
          "name": "amount0",
          "type": "uint256"
        },
        {
          "internalType": "uint256",
          "name": "amount1",
          "type": "uint256"
        },
        {
          "internalType": "bytes",
          "name": "data",
          "type": "bytes"
        }
      ],
      "name": "uniswapV2Call",
      "outputs": [],
      "stateMutability": "nonpayable",
      "type": "function"
    },
    {
      "inputs": [
        {
          "internalType": "address",
          "name": "pool0",
          "type": "address"
        },
        {
          "internalType": "address",
          "name": "pool1",
          "type": "address"
        }
      ],
      "name": "getProfit",
      "outputs": [
        {
          "internalType": "uint256",
          "name": "profit",
          "type": "uint256"
        },
        {
          "internalType": "address",
          "name": "baseToken",
          "type": "address"
        }
      ],
      "stateMutability": "view",
      "type": "function"
    }
  ],
  "bytecode": "0x60a060405260018060006101000a81548173ffffffffffffffffffffffffffffffffffffffff021916908373ffffffffffffffffffffffffffffffffffffffff1602179055503480156200005257600080fd5b5060405162004af338038062004af3833981810160405281019062000078919062000276565b60006200008a6200018260201b60201c565b9050806000806101000a81548173ffffffffffffffffffffffffffffffffffffffff021916908373ffffffffffffffffffffffffffffffffffffffff1602179055508073ffffffffffffffffffffffffffffffffffffffff16600073ffffffffffffffffffffffffffffffffffffffff167f8be0079c531659141344cd1fd0a4f28419497f9722a3daafe3b4186f6b6457e060405160405180910390a3508073ffffffffffffffffffffffffffffffffffffffff1660808173ffffffffffffffffffffffffffffffffffffffff1660601b815250506200017a8160026200018a60201b620016711790919060201c565b5050620002f0565b600033905090565b6000620001ba836000018373ffffffffffffffffffffffffffffffffffffffff1660001b620001c260201b60201c565b905092915050565b6000620001d683836200023c60201b60201c565b6200023157826000018290806001815401808255809150506001900390600052602060002001600090919091909150558260000180549050836001016000848152602001908152602001600020819055506001905062000236565b600090505b92915050565b600080836001016000848152602001908152602001600020541415905092915050565b6000815190506200027081620002d6565b92915050565b6000602082840312156200028957600080fd5b600062000299848285016200025f565b91505092915050565b6000620002af82620002b6565b9050919050565b600073ffffffffffffffffffffffffffffffffffffffff82169050919050565b620002e181620002a2565b8114620002ed57600080fd5b50565b60805160601c6147e46200030f600039600061108a01526147e46000f3fe6080604052600436106100a05760003560e01c806383e280d91161006457806383e280d9146101d45780638da5cb5b146101fd578063baee64f114610228578063bbd1e12214610251578063bed64c2f1461027a578063f2fde38b146102a5576100a7565b806310d1e85c1461010257806321d094261461012b5780633ccfd60b14610168578063715018a61461017f578063759eee1014610196576100a7565b366100a757005b3480156100b357600080fd5b506000366060600080600080868660049080926100d293929190613f6b565b8101906100df919061307c565b93509350935093506100f3848484846102ce565b50505050915050805190602001f35b34801561010e57600080fd5b5061012960048036038101906101249190613133565b6102ce565b005b34801561013757600080fd5b50610152600480360381019061014d919061302a565b610577565b60405161015f9190613b26565b60405180910390f35b34801561017457600080fd5b5061017d610594565b005b34801561018b57600080fd5b506101946107aa565b005b3480156101a257600080fd5b506101bd60048036038101906101b891906130f7565b6108e4565b6040516101cb929190613e19565b60405180910390f35b3480156101e057600080fd5b506101fb60048036038101906101f6919061302a565b610a78565b005b34801561020957600080fd5b50610212610b4f565b60405161021f9190613ac0565b60405180910390f35b34801561023457600080fd5b5061024f600480360381019061024a91906130f7565b610b78565b005b34801561025d57600080fd5b506102786004803603810190610273919061302a565b611199565b005b34801561028657600080fd5b5061028f61139d565b60405161029c9190613b04565b60405180910390f35b3480156102b157600080fd5b506102cc60048036038101906102c7919061302a565b6114c8565b005b600160009054906101000a900473ffffffffffffffffffffffffffffffffffffffff1673ffffffffffffffffffffffffffffffffffffffff163373ffffffffffffffffffffffffffffffffffffffff161461035e576040517f08c379a000000000000000000000000000000000000000000000000000000000815260040161035590613c23565b60405180910390fd5b3073ffffffffffffffffffffffffffffffffffffffff168473ffffffffffffffffffffffffffffffffffffffff16146103cc576040517f08c379a00000000000000000000000000000000000000000000000000000000081526004016103c390613c63565b60405180910390fd5b60008084116103db57826103dd565b835b90506000828060200190518101906103f591906131d7565b905061042a816020015183836060015173ffffffffffffffffffffffffffffffffffffffff166116a19092919063ffffffff16565b60008082604001516104425760008360c0015161044a565b8260c0015160005b91509150826020015173ffffffffffffffffffffffffffffffffffffffff1663022c0d9f838330600067ffffffffffffffff8111156104b2577f4e487b7100000000000000000000000000000000000000000000000000000000600052604160045260246000fd5b6040519080825280601f01601f1916602001820160405280156104e45781602001600182028036833780820191505090505b506040518563ffffffff1660e01b81526004016105049493929190613e42565b600060405180830381600087803b15801561051e57600080fd5b505af1158015610532573d6000803e3d6000fd5b5050505061056d83600001518460a00151856080015173ffffffffffffffffffffffffffffffffffffffff166116a19092919063ffffffff16565b5050505050505050565b600061058d82600261172790919063ffffffff16565b9050919050565b6000479050600081111561063c576105aa610b4f565b73ffffffffffffffffffffffffffffffffffffffff166108fc829081150290604051600060405180830381858888f193505050501580156105ef573d6000803e3d6000fd5b50806105f9610b4f565b73ffffffffffffffffffffffffffffffffffffffff167f7084f5476618d8e60b11ef0d7d3f06914655adb8793e28ff7f018d4c76d505d560405160405180910390a35b60005b6106496002611757565b8110156107a657600061066682600261176c90919063ffffffff16565b90508073ffffffffffffffffffffffffffffffffffffffff166370a08231306040518263ffffffff1660e01b81526004016106a19190613ac0565b60206040518083038186803b1580156106b957600080fd5b505afa1580156106cd573d6000803e3d6000fd5b505050506040513d601f19601f820116820180604052508101906106f1919061324f565b92506000831115610792578073ffffffffffffffffffffffffffffffffffffffff1663a9059cbb610720610b4f565b856040518363ffffffff1660e01b815260040161073e929190613adb565b602060405180830381600087803b15801561075857600080fd5b505af115801561076c573d6000803e3d6000fd5b505050506040513d601f19601f8201168201806040525081019061079091906131ae565b505b50808061079e906145e7565b91505061063f565b5050565b6107b2611786565b73ffffffffffffffffffffffffffffffffffffffff166107d0610b4f565b73ffffffffffffffffffffffffffffffffffffffff1614610826576040517f08c379a000000000000000000000000000000000000000000000000000000000815260040161081d90613cc3565b60405180910390fd5b600073ffffffffffffffffffffffffffffffffffffffff1660008054906101000a900473ffffffffffffffffffffffffffffffffffffffff1673ffffffffffffffffffffffffffffffffffffffff167f8be0079c531659141344cd1fd0a4f28419497f9722a3daafe3b4186f6b6457e060405160405180910390a360008060006101000a81548173ffffffffffffffffffffffffffffffffffffffff021916908373ffffffffffffffffffffffffffffffffffffffff160217905550565b60008060006108f3858561178e565b505090508061097f578473ffffffffffffffffffffffffffffffffffffffff1663d21220a76040518163ffffffff1660e01b815260040160206040518083038186803b15801561094257600080fd5b505afa158015610956573d6000803e3d6000fd5b505050506040513d601f19601f8201168201806040525081019061097a9190613053565b6109fe565b8473ffffffffffffffffffffffffffffffffffffffff16630dfe16816040518163ffffffff1660e01b815260040160206040518083038186803b1580156109c557600080fd5b505afa1580156109d9573d6000803e3d6000fd5b505050506040513d601f19601f820116820180604052508101906109fd9190613053565b5b91506000610a0d868684611bdc565b925050506000610a1c82611e60565b90506000610a3382846000015185602001516121c7565b90506000610a4a83856060015186604001516122da565b905081811015610a5d5760009650610a6c565b8181610a6991906144d6565b96505b50505050509250929050565b610a80611786565b73ffffffffffffffffffffffffffffffffffffffff16610a9e610b4f565b73ffffffffffffffffffffffffffffffffffffffff1614610af4576040517f08c379a0000000000000000000000000000000000000000000000000000000008152600401610aeb90613cc3565b60405180910390fd5b610b0881600261167190919063ffffffff16565b508073ffffffffffffffffffffffffffffffffffffffff167ffa1388d6e7328e9c711a539b0addfc27de8bfb6f5924cce26f80f41023b1525360405160405180910390a250565b60008060009054906101000a900473ffffffffffffffffffffffffffffffffffffffff16905090565b610b80612d0f565b610b8a838361178e565b8360400184600001856020018373ffffffffffffffffffffffffffffffffffffffff1673ffffffffffffffffffffffffffffffffffffffff168152508373ffffffffffffffffffffffffffffffffffffffff1673ffffffffffffffffffffffffffffffffffffffff168152508315151515815250505050610c09612d98565b610c1884848460400151611bdc565b84606001856080018295508373ffffffffffffffffffffffffffffffffffffffff1673ffffffffffffffffffffffffffffffffffffffff168152508373ffffffffffffffffffffffffffffffffffffffff1673ffffffffffffffffffffffffffffffffffffffff168152505050508160600151600160006101000a81548173ffffffffffffffffffffffffffffffffffffffff021916908373ffffffffffffffffffffffffffffffffffffffff1602179055506000826000015173ffffffffffffffffffffffffffffffffffffffff166370a08231306040518263ffffffff1660e01b8152600401610d0a9190613ac0565b60206040518083038186803b158015610d2257600080fd5b505afa158015610d36573d6000803e3d6000fd5b505050506040513d601f19601f82011682018060405250810190610d5a919061324f565b90506000610d6783611e60565b90506000808560400151610d7d57826000610d81565b6000835b915091506000610d9a84876000015188602001516121c7565b90506000610db185886060015189604001516122da565b9050818111610df5576040517f08c379a0000000000000000000000000000000000000000000000000000000008152600401610dec90613ce3565b60405180910390fd5b610dfd612dc0565b8860600151816000019073ffffffffffffffffffffffffffffffffffffffff16908173ffffffffffffffffffffffffffffffffffffffff16815250508860800151816020019073ffffffffffffffffffffffffffffffffffffffff16908173ffffffffffffffffffffffffffffffffffffffff168152505088604001518160400190151590811515815250508860200151816060019073ffffffffffffffffffffffffffffffffffffffff16908173ffffffffffffffffffffffffffffffffffffffff16815250508860000151816080019073ffffffffffffffffffffffffffffffffffffffff16908173ffffffffffffffffffffffffffffffffffffffff1681525050828160a0018181525050818160c0018181525050600081604051602001610f289190613de3565b6040516020818303038152906040529050896060015173ffffffffffffffffffffffffffffffffffffffff1663022c0d9f878730856040518563ffffffff1660e01b8152600401610f7c9493929190613e42565b600060405180830381600087803b158015610f9657600080fd5b505af1158015610faa573d6000803e3d6000fd5b50505050505050505050506000836000015173ffffffffffffffffffffffffffffffffffffffff166370a08231306040518263ffffffff1660e01b8152600401610ff49190613ac0565b60206040518083038186803b15801561100c57600080fd5b505afa158015611020573d6000803e3d6000fd5b505050506040513d601f19601f82011682018060405250810190611044919061324f565b9050818111611088576040517f08c379a000000000000000000000000000000000000000000000000000000000815260040161107f90613ba3565b60405180910390fd5b7f000000000000000000000000000000000000000000000000000000000000000073ffffffffffffffffffffffffffffffffffffffff16846000015173ffffffffffffffffffffffffffffffffffffffff16141561115057836000015173ffffffffffffffffffffffffffffffffffffffff16632e1a7d4d826040518263ffffffff1660e01b815260040161111d9190613dfe565b600060405180830381600087803b15801561113757600080fd5b505af115801561114b573d6000803e3d6000fd5b505050505b60018060006101000a81548173ffffffffffffffffffffffffffffffffffffffff021916908373ffffffffffffffffffffffffffffffffffffffff160217905550505050505050565b6111a1611786565b73ffffffffffffffffffffffffffffffffffffffff166111bf610b4f565b73ffffffffffffffffffffffffffffffffffffffff1614611215576040517f08c379a000000000000000000000000000000000000000000000000000000000815260040161120c90613cc3565b60405180910390fd5b60008173ffffffffffffffffffffffffffffffffffffffff166370a08231306040518263ffffffff1660e01b81526004016112509190613ac0565b60206040518083038186803b15801561126857600080fd5b505afa15801561127c573d6000803e3d6000fd5b505050506040513d601f19601f820116820180604052508101906112a0919061324f565b90506000811115611341578173ffffffffffffffffffffffffffffffffffffffff1663a9059cbb6112cf610b4f565b836040518363ffffffff1660e01b81526004016112ed929190613adb565b602060405180830381600087803b15801561130757600080fd5b505af115801561131b573d6000803e3d6000fd5b505050506040513d601f19601f8201168201806040525081019061133f91906131ae565b505b6113558260026123e090919063ffffffff16565b508173ffffffffffffffffffffffffffffffffffffffff167fdc23a849435922f20a9732eb85192a9d0c1cb34725ebe6d7de0be10212ba02fb60405160405180910390a25050565b606060006113ab6002611757565b90508067ffffffffffffffff8111156113ed577f4e487b7100000000000000000000000000000000000000000000000000000000600052604160045260246000fd5b60405190808252806020026020018201604052801561141b5781602001602082028036833780820191505090505b50915060005b818110156114c35761143d81600261176c90919063ffffffff16565b838281518110611476577f4e487b7100000000000000000000000000000000000000000000000000000000600052603260045260246000fd5b602002602001019073ffffffffffffffffffffffffffffffffffffffff16908173ffffffffffffffffffffffffffffffffffffffff168152505080806114bb906145e7565b915050611421565b505090565b6114d0611786565b73ffffffffffffffffffffffffffffffffffffffff166114ee610b4f565b73ffffffffffffffffffffffffffffffffffffffff1614611544576040517f08c379a000000000000000000000000000000000000000000000000000000000815260040161153b90613cc3565b60405180910390fd5b600073ffffffffffffffffffffffffffffffffffffffff168173ffffffffffffffffffffffffffffffffffffffff1614156115b4576040517f08c379a00000000000000000000000000000000000000000000000000000000081526004016115ab90613be3565b60405180910390fd5b8073ffffffffffffffffffffffffffffffffffffffff1660008054906101000a900473ffffffffffffffffffffffffffffffffffffffff1673ffffffffffffffffffffffffffffffffffffffff167f8be0079c531659141344cd1fd0a4f28419497f9722a3daafe3b4186f6b6457e060405160405180910390a3806000806101000a81548173ffffffffffffffffffffffffffffffffffffffff021916908373ffffffffffffffffffffffffffffffffffffffff16021790555050565b6000611699836000018373ffffffffffffffffffffffffffffffffffffffff1660001b612410565b905092915050565b6117228363a9059cbb60e01b84846040516024016116c0929190613adb565b604051602081830303815290604052907bffffffffffffffffffffffffffffffffffffffffffffffffffffffff19166020820180517bffffffffffffffffffffffffffffffffffffffffffffffffffffffff8381831617835250505050612480565b505050565b600061174f836000018373ffffffffffffffffffffffffffffffffffffffff1660001b612547565b905092915050565b60006117658260000161256a565b9050919050565b600061177b836000018361257b565b60001c905092915050565b600033905090565b60008060008373ffffffffffffffffffffffffffffffffffffffff168573ffffffffffffffffffffffffffffffffffffffff161415611802576040517f08c379a00000000000000000000000000000000000000000000000000000000081526004016117f990613d43565b60405180910390fd5b6000808673ffffffffffffffffffffffffffffffffffffffff16630dfe16816040518163ffffffff1660e01b815260040160206040518083038186803b15801561184b57600080fd5b505afa15801561185f573d6000803e3d6000fd5b505050506040513d601f19601f820116820180604052508101906118839190613053565b8773ffffffffffffffffffffffffffffffffffffffff1663d21220a76040518163ffffffff1660e01b815260040160206040518083038186803b1580156118c957600080fd5b505afa1580156118dd573d6000803e3d6000fd5b505050506040513d601f19601f820116820180604052508101906119019190613053565b915091506000808773ffffffffffffffffffffffffffffffffffffffff16630dfe16816040518163ffffffff1660e01b815260040160206040518083038186803b15801561194e57600080fd5b505afa158015611962573d6000803e3d6000fd5b505050506040513d601f19601f820116820180604052508101906119869190613053565b8873ffffffffffffffffffffffffffffffffffffffff1663d21220a76040518163ffffffff1660e01b815260040160206040518083038186803b1580156119cc57600080fd5b505afa1580156119e0573d6000803e3d6000fd5b505050506040513d601f19601f82011682018060405250810190611a049190613053565b915091508273ffffffffffffffffffffffffffffffffffffffff168473ffffffffffffffffffffffffffffffffffffffff16108015611a6e57508073ffffffffffffffffffffffffffffffffffffffff168273ffffffffffffffffffffffffffffffffffffffff16105b611aad576040517f08c379a0000000000000000000000000000000000000000000000000000000008152600401611aa490613bc3565b60405180910390fd5b8173ffffffffffffffffffffffffffffffffffffffff168473ffffffffffffffffffffffffffffffffffffffff16148015611b1357508073ffffffffffffffffffffffffffffffffffffffff168373ffffffffffffffffffffffffffffffffffffffff16145b611b52576040517f08c379a0000000000000000000000000000000000000000000000000000000008152600401611b4990613da3565b60405180910390fd5b611b5b84610577565b80611b6b5750611b6a83610577565b5b611baa576040517f08c379a0000000000000000000000000000000000000000000000000000000008152600401611ba190613d63565b60405180910390fd5b611bb384610577565b611bc05760008385611bc5565b600184845b809750819850829950505050505050509250925092565b600080611be7612d98565b6000808773ffffffffffffffffffffffffffffffffffffffff16630902f1ac6040518163ffffffff1660e01b815260040160606040518083038186803b158015611c3057600080fd5b505afa158015611c44573d6000803e3d6000fd5b505050506040513d601f19601f82011682018060405250810190611c689190613200565b506dffffffffffffffffffffffffffff1691506dffffffffffffffffffffffffffff1691506000808873ffffffffffffffffffffffffffffffffffffffff16630902f1ac6040518163ffffffff1660e01b815260040160606040518083038186803b158015611cd657600080fd5b505afa158015611cea573d6000803e3d6000fd5b505050506040513d601f19601f82011682018060405250810190611d0e9190613200565b506dffffffffffffffffffffffffffff1691506dffffffffffffffffffffffffffff16915060008089611d7657611d5686611d4887612615565b61264d90919063ffffffff16565b611d7185611d6386612615565b61264d90919063ffffffff16565b611dad565b611d9185611d8388612615565b61264d90919063ffffffff16565b611dac84611d9e87612615565b61264d90919063ffffffff16565b5b91509150611dc4818361268290919063ffffffff16565b15611e0f578b8b809950819a50505089611de15784868486611de6565b858585855b8a6000018b6020018c6040018d6060018481525084815250848152508481525050505050611e51565b8a8c809950819a50505089611e275782848688611e2c565b838387875b8a6000018b6020018c6040018d60600184815250848152508481525084815250505050505b50505050505093509350939050565b6000808260200151836000015110611e7c578260200151611e82565b82600001515b905060008360600151846040015110611e9f578360600151611ea5565b83604001515b90506000818310611eb65781611eb8565b825b9050600069d3c21bcecceda1000000821115611edf5768056bc75e2d631000009050612009565b69152d02c7e14af6800000821115611f0157678ac7230489e800009050612008565b69021e19e0c9bab2400000821115611f2357670de0b6b3a76400009050612007565b683635c9adc5dea00000821115611f445767016345785d8a00009050612006565b68056bc75e2d63100000821115611f6457662386f26fc100009050612005565b678ac7230489e80000821115611f835766038d7ea4c680009050612004565b670de0b6b3a7640000821115611fa157655af3107a40009050612003565b67016345785d8a0000821115611fbf576509184e72a0009050612002565b662386f26fc10000821115611fdb5764e8d4a510009050612001565b66038d7ea4c68000821115611ff75764174876e8009050612000565b6402540be40090505b5b5b5b5b5b5b5b5b5b600080600080848a6000015161201f91906140f2565b858b6040015161202f91906140f2565b868c6020015161203f91906140f2565b878d6060015161204f91906140f2565b93509350935093506000818461206591906142d1565b838661207191906142d1565b61207b9190614442565b90506000848661208b9190613f9e565b8385600261209991906142d1565b6120a391906142d1565b6120ad91906142d1565b9050600084866120bd91906142d1565b84886120c991906142d1565b6120d39190614442565b84866120df91906142d1565b6120e991906142d1565b90506000806120f9858585612698565b9150915060008213801561210c57508682125b801561211757508582125b80612138575060008213801561212c57508682125b801561213757508582125b5b612177576040517f08c379a000000000000000000000000000000000000000000000000000000000815260040161216e90613b83565b60405180910390fd5b60008213801561218657508682125b801561219157508582125b6121a65789816121a191906143e8565b6121b3565b89826121b291906143e8565b5b9d5050505050505050505050505050919050565b600080841161220b576040517f08c379a000000000000000000000000000000000000000000000000000000000815260040161220290613c03565b60405180910390fd5b60008311801561221b5750600082115b61225a576040517f08c379a000000000000000000000000000000000000000000000000000000000815260040161225190613c83565b60405180910390fd5b60006122836103e8612275878761278490919063ffffffff16565b61278490919063ffffffff16565b905060006122ae6103e56122a0888761279a90919063ffffffff16565b61278490919063ffffffff16565b90506122cf600182846122c191906140f2565b6127b090919063ffffffff16565b925050509392505050565b600080841161231e576040517f08c379a000000000000000000000000000000000000000000000000000000000815260040161231590613dc3565b60405180910390fd5b60008311801561232e5750600082115b61236d576040517f08c379a000000000000000000000000000000000000000000000000000000000815260040161236490613c83565b60405180910390fd5b60006123846103e58661278490919063ffffffff16565b9050600061239b848361278490919063ffffffff16565b905060006123c6836123b86103e88961278490919063ffffffff16565b6127b090919063ffffffff16565b905080826123d491906140f2565b93505050509392505050565b6000612408836000018373ffffffffffffffffffffffffffffffffffffffff1660001b6127c6565b905092915050565b600061241c8383612547565b61247557826000018290806001815401808255809150506001900390600052602060002001600090919091909150558260000180549050836001016000848152602001908152602001600020819055506001905061247a565b600090505b92915050565b60006124e2826040518060400160405280602081526020017f5361666545524332303a206c6f772d6c6576656c2063616c6c206661696c65648152508573ffffffffffffffffffffffffffffffffffffffff166129449092919063ffffffff16565b9050600081511115612542578080602001905181019061250291906131ae565b612541576040517f08c379a000000000000000000000000000000000000000000000000000000000815260040161253890613d83565b60405180910390fd5b5b505050565b600080836001016000848152602001908152602001600020541415905092915050565b600081600001805490509050919050565b6000818360000180549050116125c6576040517f08c379a00000000000000000000000000000000000000000000000000000000081526004016125bd90613b63565b60405180910390fd5b826000018281548110612602577f4e487b7100000000000000000000000000000000000000000000000000000000600052603260045260246000fd5b9060005260206000200154905092915050565b61261d612e57565b6040518060200160405280612643670de0b6b3a76400008561295c90919063ffffffff16565b8152509050919050565b612655612e57565b60405180602001604052806126778486600001516129d790919063ffffffff16565b815250905092915050565b60008061268f8484612a21565b14905092915050565b6000806000838660046126ab91906142d1565b6126b591906142d1565b6002866126c29190614265565b6126cc9190614442565b905060008113612711576040517f08c379a000000000000000000000000000000000000000000000000000000000815260040161270890613d03565b60405180910390fd5b600061271c82612a61565b905086600261272b91906142d1565b818761273690614630565b6127409190613f9e565b61274a9190614088565b935086600261275991906142d1565b818761276490614630565b61276e9190614442565b6127789190614088565b92505050935093915050565b6000818361279291906143e8565b905092915050565b600081836127a891906144d6565b905092915050565b600081836127be9190614032565b905092915050565b600080836001016000848152602001908152602001600020549050600081146129385760006001826127f891906144d6565b905060006001866000018054905061281091906144d6565b90506000866000018281548110612850577f4e487b7100000000000000000000000000000000000000000000000000000000600052603260045260246000fd5b906000526020600020015490508087600001848154811061289a577f4e487b7100000000000000000000000000000000000000000000000000000000600052603260045260246000fd5b90600052602060002001819055508387600101600083815260200190815260200160002081905550866000018054806128fc577f4e487b7100000000000000000000000000000000000000000000000000000000600052603160045260246000fd5b6001900381819060005260206000200160009055905586600101600087815260200190815260200160002060009055600194505050505061293e565b60009150505b92915050565b60606129538484600085612b1e565b90509392505050565b60008083141561296f57600090506129d1565b6000828461297d91906143e8565b905082848261298c91906140f2565b146129cc576040517f08c379a00000000000000000000000000000000000000000000000000000000081526004016129c390613ca3565b60405180910390fd5b809150505b92915050565b6000612a1983836040518060400160405280601a81526020017f536166654d6174683a206469766973696f6e206279207a65726f000000000000815250612c32565b905092915050565b6000816000015183600001511415612a3c5760019050612a5b565b8160000151836000015111612a52576000612a55565b60025b60ff1690505b92915050565b600060018211612a9a577f4e487b7100000000000000000000000000000000000000000000000000000000600052600160045260246000fd5b6000620f424083612aab91906143e8565b9050600081905081925060005b600115612b065760028483612acd91906140f2565b85612ad89190614032565b612ae291906140f2565b90506103e88185612af391906144d6565b1015612afe57612b06565b809350612ab8565b6103e884612b1491906140f2565b9350505050919050565b606082471015612b63576040517f08c379a0000000000000000000000000000000000000000000000000000000008152600401612b5a90613c43565b60405180910390fd5b612b6c85612c95565b612bab576040517f08c379a0000000000000000000000000000000000000000000000000000000008152600401612ba290613d23565b60405180910390fd5b6000808673ffffffffffffffffffffffffffffffffffffffff168587604051612bd49190613aa9565b60006040518083038185875af1925050503d8060008114612c11576040519150601f19603f3d011682016040523d82523d6000602084013e612c16565b606091505b5091509150612c26828286612ca8565b92505050949350505050565b60008083118290612c79576040517f08c379a0000000000000000000000000000000000000000000000000000000008152600401612c709190613b41565b60405180910390fd5b5060008385612c8891906140f2565b9050809150509392505050565b600080823b905060008111915050919050565b60608315612cb857829050612d08565b600083511115612ccb5782518084602001fd5b816040517f08c379a0000000000000000000000000000000000000000000000000000000008152600401612cff9190613b41565b60405180910390fd5b9392505050565b6040518060a00160405280600073ffffffffffffffffffffffffffffffffffffffff168152602001600073ffffffffffffffffffffffffffffffffffffffff168152602001600015158152602001600073ffffffffffffffffffffffffffffffffffffffff168152602001600073ffffffffffffffffffffffffffffffffffffffff1681525090565b6040518060800160405280600081526020016000815260200160008152602001600081525090565b6040518060e00160405280600073ffffffffffffffffffffffffffffffffffffffff168152602001600073ffffffffffffffffffffffffffffffffffffffff168152602001600015158152602001600073ffffffffffffffffffffffffffffffffffffffff168152602001600073ffffffffffffffffffffffffffffffffffffffff16815260200160008152602001600081525090565b6040518060200160405280600081525090565b6000612e7d612e7884613ebf565b613e8e565b905082815260208101848484011115612e9557600080fd5b612ea08482856145a5565b509392505050565b600081359050612eb781614724565b92915050565b600081519050612ecc81614724565b92915050565b600081359050612ee18161473b565b92915050565b600081519050612ef681614752565b92915050565b600082601f830112612f0d57600080fd5b8135612f1d848260208601612e6a565b91505092915050565b600060e08284031215612f3857600080fd5b612f4260e0613e8e565b90506000612f5284828501612ebd565b6000830152506020612f6684828501612ebd565b6020830152506040612f7a84828501612ee7565b6040830152506060612f8e84828501612ebd565b6060830152506080612fa284828501612ebd565b60808301525060a0612fb684828501613000565b60a08301525060c0612fca84828501613000565b60c08301525092915050565b600081519050612fe581614769565b92915050565b600081359050612ffa81614780565b92915050565b60008151905061300f81614780565b92915050565b60008151905061302481614797565b92915050565b60006020828403121561303c57600080fd5b600061304a84828501612ea8565b91505092915050565b60006020828403121561306557600080fd5b600061307384828501612ebd565b91505092915050565b6000806000806080858703121561309257600080fd5b60006130a087828801612ed2565b94505060206130b187828801612feb565b93505060406130c287828801612feb565b925050606085013567ffffffffffffffff8111156130df57600080fd5b6130eb87828801612efc565b91505092959194509250565b6000806040838503121561310a57600080fd5b600061311885828601612ea8565b925050602061312985828601612ea8565b9150509250929050565b6000806000806080858703121561314957600080fd5b600061315787828801612ea8565b945050602061316887828801612feb565b935050604061317987828801612feb565b925050606085013567ffffffffffffffff81111561319657600080fd5b6131a287828801612efc565b91505092959194509250565b6000602082840312156131c057600080fd5b60006131ce84828501612ee7565b91505092915050565b600060e082840312156131e957600080fd5b60006131f784828501612f26565b91505092915050565b60008060006060848603121561321557600080fd5b600061322386828701612fd6565b935050602061323486828701612fd6565b925050604061324586828701613015565b9150509250925092565b60006020828403121561326157600080fd5b600061326f84828501613000565b91505092915050565b60006132848383613290565b60208301905092915050565b6132998161450a565b82525050565b6132a88161450a565b82525050565b60006132b982613eff565b6132c38185613f2d565b93506132ce83613eef565b8060005b838110156132ff5781516132e68882613278565b97506132f183613f20565b9250506001810190506132d2565b5085935050505092915050565b6133158161452e565b82525050565b6133248161452e565b82525050565b600061333582613f0a565b61333f8185613f3e565b935061334f8185602086016145b4565b61335881614706565b840191505092915050565b600061336e82613f0a565b6133788185613f4f565b93506133888185602086016145b4565b80840191505092915050565b600061339f82613f15565b6133a98185613f5a565b93506133b98185602086016145b4565b6133c281614706565b840191505092915050565b60006133da602283613f5a565b91507f456e756d657261626c655365743a20696e646578206f7574206f6620626f756e60008301527f64730000000000000000000000000000000000000000000000000000000000006020830152604082019050919050565b6000613440601183613f5a565b91507f57726f6e6720696e707574206f726465720000000000000000000000000000006000830152602082019050919050565b6000613480600c83613f5a565b91507f4c6f73696e67206d6f6e657900000000000000000000000000000000000000006000830152602082019050919050565b60006134c0601d83613f5a565b91507f4e6f6e207374616e6461726420756e697377617020414d4d20706169720000006000830152602082019050919050565b6000613500602683613f5a565b91507f4f776e61626c653a206e6577206f776e657220697320746865207a65726f206160008301527f64647265737300000000000000000000000000000000000000000000000000006020830152604082019050919050565b6000613566602c83613f5a565b91507f556e697377617056324c6962726172793a20494e53554646494349454e545f4f60008301527f55545055545f414d4f554e5400000000000000000000000000000000000000006020830152604082019050919050565b60006135cc601d83613f5a565b91507f4e6f6e207065726d697373696f6e656420616464726573732063616c6c0000006000830152602082019050919050565b600061360c602683613f5a565b91507f416464726573733a20696e73756666696369656e742062616c616e636520666f60008301527f722063616c6c00000000000000000000000000000000000000000000000000006020830152604082019050919050565b6000613672601683613f5a565b91507f4e6f742066726f6d207468697320636f6e7472616374000000000000000000006000830152602082019050919050565b60006136b2602883613f5a565b91507f556e697377617056324c6962726172793a20494e53554646494349454e545f4c60008301527f49515549444954590000000000000000000000000000000000000000000000006020830152604082019050919050565b6000613718602183613f5a565b91507f536166654d6174683a206d756c7469706c69636174696f6e206f766572666c6f60008301527f77000000000000000000000000000000000000000000000000000000000000006020830152604082019050919050565b600061377e602083613f5a565b91507f4f776e61626c653a2063616c6c6572206973206e6f7420746865206f776e65726000830152602082019050919050565b60006137be601983613f5a565b91507f417262697472616765206661696c2c206e6f2070726f666974000000000000006000830152602082019050919050565b60006137fe600e83613f5a565b91507f436f6d706c6578206e756d6265720000000000000000000000000000000000006000830152602082019050919050565b600061383e601d83613f5a565b91507f416464726573733a2063616c6c20746f206e6f6e2d636f6e74726163740000006000830152602082019050919050565b600061387e601183613f5a565b91507f53616d65207061697220616464726573730000000000000000000000000000006000830152602082019050919050565b60006138be601583613f5a565b91507f4e6f206261736520746f6b656e20696e207061697200000000000000000000006000830152602082019050919050565b60006138fe602a83613f5a565b91507f5361666545524332303a204552433230206f7065726174696f6e20646964206e60008301527f6f742073756363656564000000000000000000000000000000000000000000006020830152604082019050919050565b6000613964601783613f5a565b91507f526571756972652073616d6520746f6b656e20706169720000000000000000006000830152602082019050919050565b60006139a4602b83613f5a565b91507f556e697377617056324c6962726172793a20494e53554646494349454e545f4960008301527f4e5055545f414d4f554e540000000000000000000000000000000000000000006020830152604082019050919050565b60e082016000820151613a136000850182613290565b506020820151613a266020850182613290565b506040820151613a39604085018261330c565b506060820151613a4c6060850182613290565b506080820151613a5f6080850182613290565b5060a0820151613a7260a0850182613a8b565b5060c0820151613a8560c0850182613a8b565b50505050565b613a948161457e565b82525050565b613aa38161457e565b82525050565b6000613ab58284613363565b915081905092915050565b6000602082019050613ad5600083018461329f565b92915050565b6000604082019050613af0600083018561329f565b613afd6020830184613a9a565b9392505050565b60006020820190508181036000830152613b1e81846132ae565b905092915050565b6000602082019050613b3b600083018461331b565b92915050565b60006020820190508181036000830152613b5b8184613394565b905092915050565b60006020820190508181036000830152613b7c816133cd565b9050919050565b60006020820190508181036000830152613b9c81613433565b9050919050565b60006020820190508181036000830152613bbc81613473565b9050919050565b60006020820190508181036000830152613bdc816134b3565b9050919050565b60006020820190508181036000830152613bfc816134f3565b9050919050565b60006020820190508181036000830152613c1c81613559565b9050919050565b60006020820190508181036000830152613c3c816135bf565b9050919050565b60006020820190508181036000830152613c5c816135ff565b9050919050565b60006020820190508181036000830152613c7c81613665565b9050919050565b60006020820190508181036000830152613c9c816136a5565b9050919050565b60006020820190508181036000830152613cbc8161370b565b9050919050565b60006020820190508181036000830152613cdc81613771565b9050919050565b60006020820190508181036000830152613cfc816137b1565b9050919050565b60006020820190508181036000830152613d1c816137f1565b9050919050565b60006020820190508181036000830152613d3c81613831565b9050919050565b60006020820190508181036000830152613d5c81613871565b9050919050565b60006020820190508181036000830152613d7c816138b1565b9050919050565b60006020820190508181036000830152613d9c816138f1565b9050919050565b60006020820190508181036000830152613dbc81613957565b9050919050565b60006020820190508181036000830152613ddc81613997565b9050919050565b600060e082019050613df860008301846139fd565b92915050565b6000602082019050613e136000830184613a9a565b92915050565b6000604082019050613e2e6000830185613a9a565b613e3b602083018461329f565b9392505050565b6000608082019050613e576000830187613a9a565b613e646020830186613a9a565b613e71604083018561329f565b8181036060830152613e83818461332a565b905095945050505050565b6000604051905081810181811067ffffffffffffffff82111715613eb557613eb46146d7565b5b8060405250919050565b600067ffffffffffffffff821115613eda57613ed96146d7565b5b601f19601f8301169050602081019050919050565b6000819050602082019050919050565b600081519050919050565b600081519050919050565b600081519050919050565b6000602082019050919050565b600082825260208201905092915050565b600082825260208201905092915050565b600081905092915050565b600082825260208201905092915050565b60008085851115613f7b57600080fd5b83861115613f8857600080fd5b6001850283019150848603905094509492505050565b6000613fa98261453a565b9150613fb48361453a565b9250817f7fffffffffffffffffffffffffffffffffffffffffffffffffffffffffffffff03831360008312151615613fef57613fee614679565b5b817f800000000000000000000000000000000000000000000000000000000000000003831260008312161561402757614026614679565b5b828201905092915050565b600061403d8261457e565b91506140488361457e565b9250827fffffffffffffffffffffffffffffffffffffffffffffffffffffffffffffffff0382111561407d5761407c614679565b5b828201905092915050565b60006140938261453a565b915061409e8361453a565b9250826140ae576140ad6146a8565b5b600160000383147f8000000000000000000000000000000000000000000000000000000000000000831416156140e7576140e6614679565b5b828205905092915050565b60006140fd8261457e565b91506141088361457e565b925082614118576141176146a8565b5b828204905092915050565b6000808291508390505b600185111561416d5780860481111561414957614148614679565b5b60018516156141585780820291505b808102905061416685614717565b945061412d565b94509492505050565b6000826000811461418e5760018114614198576141a1565b600191505061425d565b8291505061425d565b50816141b0576000905061425d565b6001905060008213600181146141cd57600081146141e5576141f9565b8286048311156141e0576141df614679565b5b6141f9565b8286058312156141f8576141f7614679565b5b5b506001831615614207578190505b818202915061421583614717565b925061422385848484614123565b92509050818504811160008213161561423f5761423e614679565b5b818405811260008212161561425757614256614679565b5b81810290505b949350505050565b60006142708261453a565b915061427b83614598565b92506142c97f7fffffffffffffffffffffffffffffffffffffffffffffffffffffffffffffff7f80000000000000000000000000000000000000000000000000000000000000008585614176565b905092915050565b60006142dc8261453a565b91506142e78361453a565b9250827f7fffffffffffffffffffffffffffffffffffffffffffffffffffffffffffffff048211600084136000841316161561432657614325614679565b5b817f8000000000000000000000000000000000000000000000000000000000000000058312600084126000841316161561436357614362614679565b5b827f800000000000000000000000000000000000000000000000000000000000000005821260008413600084121616156143a05761439f614679565b5b827f7fffffffffffffffffffffffffffffffffffffffffffffffffffffffffffffff05821260008412600084121616156143dd576143dc614679565b5b828202905092915050565b60006143f38261457e565b91506143fe8361457e565b9250817fffffffffffffffffffffffffffffffffffffffffffffffffffffffffffffffff048311821515161561443757614436614679565b5b828202905092915050565b600061444d8261453a565b91506144588361453a565b9250827f80000000000000000000000000000000000000000000000000000000000000000182126000841215161561449357614492614679565b5b827f7fffffffffffffffffffffffffffffffffffffffffffffffffffffffffffffff0182136000841216156144cb576144ca614679565b5b828203905092915050565b60006144e18261457e565b91506144ec8361457e565b9250828210156144ff576144fe614679565b5b828203905092915050565b60006145158261455e565b9050919050565b60006145278261455e565b9050919050565b60008115159050919050565b6000819050919050565b60006dffffffffffffffffffffffffffff82169050919050565b600073ffffffffffffffffffffffffffffffffffffffff82169050919050565b6000819050919050565b600063ffffffff82169050919050565b600060ff82169050919050565b82818337600083830152505050565b60005b838110156145d25780820151818401526020810190506145b7565b838111156145e1576000848401525b50505050565b60006145f28261457e565b91507fffffffffffffffffffffffffffffffffffffffffffffffffffffffffffffffff82141561462557614624614679565b5b600182019050919050565b600061463b8261453a565b91507f800000000000000000000000000000000000000000000000000000000000000082141561466e5761466d614679565b5b816000039050919050565b7f4e487b7100000000000000000000000000000000000000000000000000000000600052601160045260246000fd5b7f4e487b7100000000000000000000000000000000000000000000000000000000600052601260045260246000fd5b7f4e487b7100000000000000000000000000000000000000000000000000000000600052604160045260246000fd5b6000601f19601f8301169050919050565b60008160011c9050919050565b61472d8161450a565b811461473857600080fd5b50565b6147448161451c565b811461474f57600080fd5b50565b61475b8161452e565b811461476657600080fd5b50565b61477281614544565b811461477d57600080fd5b50565b6147898161457e565b811461479457600080fd5b50565b6147a081614588565b81146147ab57600080fd5b5056fea264697066735822122094802e824c57e16c57f398ed2f57380851e2306e8caee7f428f9ba95f7a092bf64736f6c63430008000033",
  "immutableReferences": {
    "70": [
      {
        "length": 32,
        "start": 4234
      }
    ]
  },
  "source": "//SPDX-License-Identifier: Unlicense\r\npragma solidity ^0.8.0;\r\npragma abicoder v2;\r\n\r\nimport '@openzeppelin/contracts/token/ERC20/IERC20.sol';\r\nimport '@openzeppelin/contracts/token/ERC20/utils/SafeERC20.sol';\r\nimport '@openzeppelin/contracts/access/Ownable.sol';\r\nimport '@openzeppelin/contracts/utils/structs/EnumerableSet.sol';\r\nimport '@openzeppelin/contracts/utils/math/SafeMath.sol';\r\n\r\nimport './interfaces/IUniswapV2Pair.sol';\r\nimport './interfaces/IWETH.sol';\r\nimport './libraries/Decimal.sol';\r\n\r\n/**\r\n* @title FlashLoaner\r\n* @author KeremP (original implementation by Paco0x)\r\n* Implements FlashSwap arbitrage contract. Originally written by Paco0x (https://github.com/paco0x)\r\n* Edited and optimized by myslef, KeremP.\r\n*/\r\n\r\nstruct OrderedReserves {\r\n    uint256 a1; // base asset\r\n    uint256 b1;\r\n    uint256 a2;\r\n    uint256 b2;\r\n}\r\n\r\nstruct ArbitrageInfo {\r\n    address baseToken;\r\n    address quoteToken;\r\n    bool baseTokenSmaller;\r\n    address lowerPool; // pool with lower price, denominated in quote asset\r\n    address higherPool; // pool with higher price, denominated in quote asset\r\n}\r\n\r\nstruct CallbackData {\r\n    address debtPool;\r\n    address targetPool;\r\n    bool debtTokenSmaller;\r\n    address borrowedToken;\r\n    address debtToken;\r\n    uint256 debtAmount;\r\n    uint256 debtTokenOutAmount;\r\n}\r\n\r\ncontract FlashBot is Ownable {\r\n    using Decimal for Decimal.D256;\r\n    using SafeMath for uint256;\r\n    using SafeERC20 for IERC20;\r\n    using EnumerableSet for EnumerableSet.AddressSet;\r\n\r\n    // ACCESS CONTROL\r\n    // Only the `permissionedPairAddress` may call the `uniswapV2Call` function\r\n    address permissionedPairAddress = address(1);\r\n\r\n    // WETH on ETH or WBNB on BSC\r\n    address immutable WETH;\r\n\r\n    // AVAILABLE BASE TOKENS\r\n    EnumerableSet.AddressSet baseTokens;\r\n\r\n    event Withdrawn(address indexed to, uint256 indexed value);\r\n    event BaseTokenAdded(address indexed token);\r\n    event BaseTokenRemoved(address indexed token);\r\n\r\n    constructor(address _WETH) {\r\n        WETH = _WETH;\r\n        baseTokens.add(_WETH);\r\n\r\n    }\r\n\r\n    receive() external payable {}\r\n\r\n    /// @dev Redirect uniswap callback function\r\n    /// The callback function on different DEX are not same, so use a fallback to redirect to uniswapV2Call\r\n    fallback(bytes calldata _input) external returns (bytes memory) {\r\n        (address sender, uint256 amount0, uint256 amount1, bytes memory data) = abi.decode(_input[4:], (address, uint256, uint256, bytes));\r\n        uniswapV2Call(sender, amount0, amount1, data);\r\n    }\r\n\r\n    function withdraw() external {\r\n        uint256 balance = address(this).balance;\r\n        if (balance > 0) {\r\n            payable(owner()).transfer(balance);\r\n            emit Withdrawn(owner(), balance);\r\n        }\r\n\r\n        for (uint256 i = 0; i < baseTokens.length(); i++) {\r\n            address token = baseTokens.at(i);\r\n            balance = IERC20(token).balanceOf(address(this));\r\n            if (balance > 0) {\r\n                // do not use safe transfer here to prevents revert by any shitty token\r\n                IERC20(token).transfer(owner(), balance);\r\n            }\r\n        }\r\n    }\r\n\r\n    function addBaseToken(address token) external onlyOwner {\r\n        baseTokens.add(token);\r\n        emit BaseTokenAdded(token);\r\n    }\r\n\r\n    function removeBaseToken(address token) external onlyOwner {\r\n        uint256 balance = IERC20(token).balanceOf(address(this));\r\n        if (balance > 0) {\r\n            // do not use safe transfer to prevents revert by any shitty token\r\n            IERC20(token).transfer(owner(), balance);\r\n        }\r\n        baseTokens.remove(token);\r\n        emit BaseTokenRemoved(token);\r\n    }\r\n\r\n    function getBaseTokens() external view returns (address[] memory tokens) {\r\n        uint256 length = baseTokens.length();\r\n        tokens = new address[](length);\r\n        for (uint256 i = 0; i < length; i++) {\r\n            tokens[i] = baseTokens.at(i);\r\n        }\r\n    }\r\n\r\n    function baseTokensContains(address token) public view returns (bool) {\r\n        return baseTokens.contains(token);\r\n    }\r\n\r\n    function isbaseTokenSmaller(address pool0, address pool1)\r\n        internal\r\n        view\r\n        returns (\r\n            bool baseSmaller,\r\n            address baseToken,\r\n            address quoteToken\r\n        )\r\n    {\r\n        require(pool0 != pool1, 'Same pair address');\r\n        (address pool0Token0, address pool0Token1) = (IUniswapV2Pair(pool0).token0(), IUniswapV2Pair(pool0).token1());\r\n        (address pool1Token0, address pool1Token1) = (IUniswapV2Pair(pool1).token0(), IUniswapV2Pair(pool1).token1());\r\n        require(pool0Token0 < pool0Token1 && pool1Token0 < pool1Token1, 'Non standard uniswap AMM pair');\r\n        require(pool0Token0 == pool1Token0 && pool0Token1 == pool1Token1, 'Require same token pair');\r\n        require(baseTokensContains(pool0Token0) || baseTokensContains(pool0Token1), 'No base token in pair');\r\n\r\n        (baseSmaller, baseToken, quoteToken) = baseTokensContains(pool0Token0)\r\n            ? (true, pool0Token0, pool0Token1)\r\n            : (false, pool0Token1, pool0Token0);\r\n    }\r\n\r\n    /// @dev Compare price denominated in quote token between two pools\r\n    /// We borrow base token by using flash swap from lower price pool and sell them to higher price pool\r\n    function getOrderedReserves(\r\n        address pool0,\r\n        address pool1,\r\n        bool baseTokenSmaller\r\n    )\r\n        internal\r\n        view\r\n        returns (\r\n            address lowerPool,\r\n            address higherPool,\r\n            OrderedReserves memory orderedReserves\r\n        )\r\n    {\r\n        (uint256 pool0Reserve0, uint256 pool0Reserve1, ) = IUniswapV2Pair(pool0).getReserves();\r\n        (uint256 pool1Reserve0, uint256 pool1Reserve1, ) = IUniswapV2Pair(pool1).getReserves();\r\n\r\n        // Calculate the price denominated in quote asset token\r\n        (Decimal.D256 memory price0, Decimal.D256 memory price1) =\r\n            baseTokenSmaller\r\n                ? (Decimal.from(pool0Reserve0).div(pool0Reserve1), Decimal.from(pool1Reserve0).div(pool1Reserve1))\r\n                : (Decimal.from(pool0Reserve1).div(pool0Reserve0), Decimal.from(pool1Reserve1).div(pool1Reserve0));\r\n\r\n        // get a1, b1, a2, b2 with following rule:\r\n        // 1. (a1, b1) represents the pool with lower price, denominated in quote asset token\r\n        // 2. (a1, a2) are the base tokens in two pools\r\n        if (price0.lessThan(price1)) {\r\n            (lowerPool, higherPool) = (pool0, pool1);\r\n            (orderedReserves.a1, orderedReserves.b1, orderedReserves.a2, orderedReserves.b2) = baseTokenSmaller\r\n                ? (pool0Reserve0, pool0Reserve1, pool1Reserve0, pool1Reserve1)\r\n                : (pool0Reserve1, pool0Reserve0, pool1Reserve1, pool1Reserve0);\r\n        } else {\r\n            (lowerPool, higherPool) = (pool1, pool0);\r\n            (orderedReserves.a1, orderedReserves.b1, orderedReserves.a2, orderedReserves.b2) = baseTokenSmaller\r\n                ? (pool1Reserve0, pool1Reserve1, pool0Reserve0, pool0Reserve1)\r\n                : (pool1Reserve1, pool1Reserve0, pool0Reserve1, pool0Reserve0);\r\n        }\r\n    }\r\n\r\n    /// @notice Do an arbitrage between two Uniswap-like AMM pools\r\n    /// @dev Two pools must contains same token pair\r\n    function flashArbitrage(address pool0, address pool1) external {\r\n        ArbitrageInfo memory info;\r\n        (info.baseTokenSmaller, info.baseToken, info.quoteToken) = isbaseTokenSmaller(pool0, pool1);\r\n\r\n        OrderedReserves memory orderedReserves;\r\n        (info.lowerPool, info.higherPool, orderedReserves) = getOrderedReserves(pool0, pool1, info.baseTokenSmaller);\r\n\r\n        // this must be updated every transaction for callback origin authentication\r\n        permissionedPairAddress = info.lowerPool;\r\n\r\n        uint256 balanceBefore = IERC20(info.baseToken).balanceOf(address(this));\r\n\r\n        // avoid stack too deep error\r\n        {\r\n            uint256 borrowAmount = calcBorrowAmount(orderedReserves);\r\n            (uint256 amount0Out, uint256 amount1Out) =\r\n                info.baseTokenSmaller ? (uint256(0), borrowAmount) : (borrowAmount, uint256(0));\r\n            // borrow quote token on lower price pool, calculate how much debt we need to pay demoninated in base token\r\n            uint256 debtAmount = getAmountIn(borrowAmount, orderedReserves.a1, orderedReserves.b1);\r\n            // sell borrowed quote token on higher price pool, calculate how much base token we can get\r\n            uint256 baseTokenOutAmount = getAmountOut(borrowAmount, orderedReserves.b2, orderedReserves.a2);\r\n            require(baseTokenOutAmount > debtAmount, 'Arbitrage fail, no profit');\r\n\r\n\r\n            // can only initialize this way to avoid stack too deep error\r\n            CallbackData memory callbackData;\r\n            callbackData.debtPool = info.lowerPool;\r\n            callbackData.targetPool = info.higherPool;\r\n            callbackData.debtTokenSmaller = info.baseTokenSmaller;\r\n            callbackData.borrowedToken = info.quoteToken;\r\n            callbackData.debtToken = info.baseToken;\r\n            callbackData.debtAmount = debtAmount;\r\n            callbackData.debtTokenOutAmount = baseTokenOutAmount;\r\n\r\n            bytes memory data = abi.encode(callbackData);\r\n            IUniswapV2Pair(info.lowerPool).swap(amount0Out, amount1Out, address(this), data);\r\n        }\r\n\r\n        uint256 balanceAfter = IERC20(info.baseToken).balanceOf(address(this));\r\n        require(balanceAfter > balanceBefore, 'Losing money');\r\n\r\n        if (info.baseToken == WETH) {\r\n            IWETH(info.baseToken).withdraw(balanceAfter);\r\n        }\r\n        permissionedPairAddress = address(1);\r\n    }\r\n\r\n    function uniswapV2Call(\r\n        address sender,\r\n        uint256 amount0,\r\n        uint256 amount1,\r\n        bytes memory data\r\n    ) public {\r\n        // access control\r\n        require(msg.sender == permissionedPairAddress, 'Non permissioned address call');\r\n        require(sender == address(this), 'Not from this contract');\r\n\r\n        uint256 borrowedAmount = amount0 > 0 ? amount0 : amount1;\r\n        CallbackData memory info = abi.decode(data, (CallbackData));\r\n\r\n        IERC20(info.borrowedToken).safeTransfer(info.targetPool, borrowedAmount);\r\n\r\n        (uint256 amount0Out, uint256 amount1Out) =\r\n            info.debtTokenSmaller ? (info.debtTokenOutAmount, uint256(0)) : (uint256(0), info.debtTokenOutAmount);\r\n        IUniswapV2Pair(info.targetPool).swap(amount0Out, amount1Out, address(this), new bytes(0));\r\n\r\n        IERC20(info.debtToken).safeTransfer(info.debtPool, info.debtAmount);\r\n    }\r\n\r\n    /// @notice Calculate how much profit we can by arbitraging between two pools\r\n    function getProfit(address pool0, address pool1) external view returns (uint256 profit, address baseToken) {\r\n        (bool baseTokenSmaller, , ) = isbaseTokenSmaller(pool0, pool1);\r\n        baseToken = baseTokenSmaller ? IUniswapV2Pair(pool0).token0() : IUniswapV2Pair(pool0).token1();\r\n\r\n        (, , OrderedReserves memory orderedReserves) = getOrderedReserves(pool0, pool1, baseTokenSmaller);\r\n\r\n        uint256 borrowAmount = calcBorrowAmount(orderedReserves);\r\n        // borrow quote token on lower price pool,\r\n        uint256 debtAmount = getAmountIn(borrowAmount, orderedReserves.a1, orderedReserves.b1);\r\n        // sell borrowed quote token on higher price pool\r\n        uint256 baseTokenOutAmount = getAmountOut(borrowAmount, orderedReserves.b2, orderedReserves.a2);\r\n        if (baseTokenOutAmount < debtAmount) {\r\n            profit = 0;\r\n        } else {\r\n            profit = baseTokenOutAmount - debtAmount;\r\n        }\r\n    }\r\n\r\n    /// @dev calculate the maximum base asset amount to borrow in order to get maximum profit during arbitrage\r\n    function calcBorrowAmount(OrderedReserves memory reserves) internal pure returns (uint256 amount) {\r\n        // we can't use a1,b1,a2,b2 directly, because it will result overflow/underflow on the intermediate result\r\n        // so we:\r\n        //    1. divide all the numbers by d to prevent from overflow/underflow\r\n        //    2. calculate the result by using above numbers\r\n        //    3. multiply d with the result to get the final result\r\n        // Note: this workaround is only suitable for ERC20 token with 18 decimals, which I believe most tokens do\r\n\r\n        uint256 min1 = reserves.a1 < reserves.b1 ? reserves.a1 : reserves.b1;\r\n        uint256 min2 = reserves.a2 < reserves.b2 ? reserves.a2 : reserves.b2;\r\n        uint256 min = min1 < min2 ? min1 : min2;\r\n\r\n        // choose appropriate number to divide based on the minimum number\r\n        uint256 d;\r\n        if (min > 1e24) {\r\n            d = 1e20;\r\n        } else if (min > 1e23) {\r\n            d = 1e19;\r\n        } else if (min > 1e22) {\r\n            d = 1e18;\r\n        } else if (min > 1e21) {\r\n            d = 1e17;\r\n        } else if (min > 1e20) {\r\n            d = 1e16;\r\n        } else if (min > 1e19) {\r\n            d = 1e15;\r\n        } else if (min > 1e18) {\r\n            d = 1e14;\r\n        } else if (min > 1e17) {\r\n            d = 1e13;\r\n        } else if (min > 1e16) {\r\n            d = 1e12;\r\n        } else if (min > 1e15) {\r\n            d = 1e11;\r\n        } else {\r\n            d = 1e10;\r\n        }\r\n\r\n        (int256 a1, int256 a2, int256 b1, int256 b2) =\r\n            (int256(reserves.a1 / d), int256(reserves.a2 / d), int256(reserves.b1 / d), int256(reserves.b2 / d));\r\n\r\n        int256 a = a1 * b1 - a2 * b2;\r\n        int256 b = 2 * b1 * b2 * (a1 + a2);\r\n        int256 c = b1 * b2 * (a1 * b2 - a2 * b1);\r\n\r\n        (int256 x1, int256 x2) = calcSolutionForQuadratic(a, b, c);\r\n\r\n        // 0 < x < b1 and 0 < x < b2\r\n        require((x1 > 0 && x1 < b1 && x1 < b2) || (x1 > 0 && x1 < b1 && x1 < b2), 'Wrong input order');\r\n        amount = (x1 > 0 && x1 < b1 && x1 < b2) ? uint256(x1) * d : uint256(x2) * d;\r\n    }\r\n\r\n    /// @dev find solution of quadratic equation: ax^2 + bx + c = 0, only return the positive solution\r\n    function calcSolutionForQuadratic(\r\n        int256 a,\r\n        int256 b,\r\n        int256 c\r\n    ) internal pure returns (int256 x1, int256 x2) {\r\n        int256 m = b**2 - 4 * a * c;\r\n        // m < 0 leads to complex number\r\n        require(m > 0, 'Complex number');\r\n\r\n        int256 sqrtM = int256(sqrt(uint256(m)));\r\n        x1 = (-b + sqrtM) / (2 * a);\r\n        x2 = (-b - sqrtM) / (2 * a);\r\n    }\r\n\r\n    /// @dev Newtons method for caculating square root of n\r\n    function sqrt(uint256 n) internal pure returns (uint256 res) {\r\n        assert(n > 1);\r\n\r\n        // The scale factor is a crude way to turn everything into integer calcs.\r\n        // Actually do (n * 10 ^ 4) ^ (1/2)\r\n        uint256 _n = n * 10**6;\r\n        uint256 c = _n;\r\n        res = _n;\r\n\r\n        uint256 xi;\r\n        while (true) {\r\n            xi = (res + c / res) / 2;\r\n            // don't need be too precise to save gas\r\n            if (res - xi < 1000) {\r\n                break;\r\n            }\r\n            res = xi;\r\n        }\r\n        res = res / 10**3;\r\n    }\r\n\r\n    // copy from UniswapV2Library\r\n    // given an output amount of an asset and pair reserves, returns a required input amount of the other asset\r\n    function getAmountIn(\r\n        uint256 amountOut,\r\n        uint256 reserveIn,\r\n        uint256 reserveOut\r\n    ) internal pure returns (uint256 amountIn) {\r\n        require(amountOut > 0, 'UniswapV2Library: INSUFFICIENT_OUTPUT_AMOUNT');\r\n        require(reserveIn > 0 && reserveOut > 0, 'UniswapV2Library: INSUFFICIENT_LIQUIDITY');\r\n        uint256 numerator = reserveIn.mul(amountOut).mul(1000);\r\n        uint256 denominator = reserveOut.sub(amountOut).mul(997);\r\n        amountIn = (numerator / denominator).add(1);\r\n    }\r\n\r\n    // copy from UniswapV2Library\r\n    // given an input amount of an asset and pair reserves, returns the maximum output amount of the other asset\r\n    function getAmountOut(\r\n        uint256 amountIn,\r\n        uint256 reserveIn,\r\n        uint256 reserveOut\r\n    ) internal pure returns (uint256 amountOut) {\r\n        require(amountIn > 0, 'UniswapV2Library: INSUFFICIENT_INPUT_AMOUNT');\r\n        require(reserveIn > 0 && reserveOut > 0, 'UniswapV2Library: INSUFFICIENT_LIQUIDITY');\r\n        uint256 amountInWithFee = amountIn.mul(997);\r\n        uint256 numerator = amountInWithFee.mul(reserveOut);\r\n        uint256 denominator = reserveIn.mul(1000).add(amountInWithFee);\r\n        amountOut = numerator / denominator;\r\n    }\r\n}\r\n",
  "sourcePath": "C:/Users/kerpr/Desktop/AMM_Arb_testing/contracts/FlashLoaner.sol",
  "compiler": {
    "name": "solc",
    "version": "0.8.0+commit.c7dfd78e.Emscripten.clang"
  },
  "schemaVersion": "3.4.1",
  "updatedAt": "2021-06-18T19:56:21.575Z",
  "devdoc": {
    "kind": "dev",
    "methods": {
      "flashArbitrage(address,address)": {
        "details": "Two pools must contains same token pair"
      },
      "owner()": {
        "details": "Returns the address of the current owner."
      },
      "renounceOwnership()": {
        "details": "Leaves the contract without owner. It will not be possible to call `onlyOwner` functions anymore. Can only be called by the current owner. NOTE: Renouncing ownership will leave the contract without an owner, thereby removing any functionality that is only available to the owner."
      },
      "transferOwnership(address)": {
        "details": "Transfers ownership of the contract to a new account (`newOwner`). Can only be called by the current owner."
      }
    },
    "version": 1
  },
  "userdoc": {
    "kind": "user",
    "methods": {
      "flashArbitrage(address,address)": {
        "notice": "Do an arbitrage between two Uniswap-like AMM pools"
      },
      "getProfit(address,address)": {
        "notice": "Calculate how much profit we can by arbitraging between two pools"
      }
    },
    "version": 1
  }
}