{
  "contractName": "InternalFuncTest",
  "abi": [
    {
      "inputs": [],
      "stateMutability": "nonpayable",
      "type": "constructor"
    },
    {
      "anonymous": false,
      "inputs": [
        {
          "indexed": true,
          "internalType": "address",
          "name": "token",
          "type": "address"
        }
      ],
      "name": "BaseTokenAdded",
      "type": "event"
    },
    {
      "anonymous": false,
      "inputs": [
        {
          "indexed": true,
          "internalType": "address",
          "name": "token",
          "type": "address"
        }
      ],
      "name": "BaseTokenRemoved",
      "type": "event"
    },
    {
      "anonymous": false,
      "inputs": [
        {
          "indexed": true,
          "internalType": "address",
          "name": "previousOwner",
          "type": "address"
        },
        {
          "indexed": true,
          "internalType": "address",
          "name": "newOwner",
          "type": "address"
        }
      ],
      "name": "OwnershipTransferred",
      "type": "event"
    },
    {
      "anonymous": false,
      "inputs": [
        {
          "indexed": true,
          "internalType": "address",
          "name": "to",
          "type": "address"
        },
        {
          "indexed": true,
          "internalType": "uint256",
          "name": "value",
          "type": "uint256"
        }
      ],
      "name": "Withdrawn",
      "type": "event"
    },
    {
      "stateMutability": "nonpayable",
      "type": "fallback"
    },
    {
      "inputs": [
        {
          "internalType": "address",
          "name": "token",
          "type": "address"
        }
      ],
      "name": "addBaseToken",
      "outputs": [],
      "stateMutability": "nonpayable",
      "type": "function"
    },
    {
      "inputs": [
        {
          "internalType": "address",
          "name": "token",
          "type": "address"
        }
      ],
      "name": "baseTokensContains",
      "outputs": [
        {
          "internalType": "bool",
          "name": "",
          "type": "bool"
        }
      ],
      "stateMutability": "view",
      "type": "function"
    },
    {
      "inputs": [
        {
          "internalType": "address",
          "name": "pool0",
          "type": "address"
        },
        {
          "internalType": "address",
          "name": "pool1",
          "type": "address"
        }
      ],
      "name": "flashArbitrage",
      "outputs": [],
      "stateMutability": "nonpayable",
      "type": "function"
    },
    {
      "inputs": [],
      "name": "getBaseTokens",
      "outputs": [
        {
          "internalType": "address[]",
          "name": "tokens",
          "type": "address[]"
        }
      ],
      "stateMutability": "view",
      "type": "function"
    },
    {
      "inputs": [
        {
          "internalType": "address",
          "name": "pool0",
          "type": "address"
        },
        {
          "internalType": "address",
          "name": "pool1",
          "type": "address"
        }
      ],
      "name": "getProfit",
      "outputs": [
        {
          "internalType": "uint256",
          "name": "profit",
          "type": "uint256"
        },
        {
          "internalType": "address",
          "name": "baseToken",
          "type": "address"
        }
      ],
      "stateMutability": "view",
      "type": "function"
    },
    {
      "inputs": [],
      "name": "owner",
      "outputs": [
        {
          "internalType": "address",
          "name": "",
          "type": "address"
        }
      ],
      "stateMutability": "view",
      "type": "function"
    },
    {
      "inputs": [
        {
          "internalType": "address",
          "name": "token",
          "type": "address"
        }
      ],
      "name": "removeBaseToken",
      "outputs": [],
      "stateMutability": "nonpayable",
      "type": "function"
    },
    {
      "inputs": [],
      "name": "renounceOwnership",
      "outputs": [],
      "stateMutability": "nonpayable",
      "type": "function"
    },
    {
      "inputs": [
        {
          "internalType": "address",
          "name": "newOwner",
          "type": "address"
        }
      ],
      "name": "transferOwnership",
      "outputs": [],
      "stateMutability": "nonpayable",
      "type": "function"
    },
    {
      "inputs": [
        {
          "internalType": "address",
          "name": "sender",
          "type": "address"
        },
        {
          "internalType": "uint256",
          "name": "amount0",
          "type": "uint256"
        },
        {
          "internalType": "uint256",
          "name": "amount1",
          "type": "uint256"
        },
        {
          "internalType": "bytes",
          "name": "data",
          "type": "bytes"
        }
      ],
      "name": "uniswapV2Call",
      "outputs": [],
      "stateMutability": "nonpayable",
      "type": "function"
    },
    {
      "inputs": [],
      "name": "withdraw",
      "outputs": [],
      "stateMutability": "nonpayable",
      "type": "function"
    },
    {
      "stateMutability": "payable",
      "type": "receive"
    },
    {
      "inputs": [
        {
          "components": [
            {
              "internalType": "uint256",
              "name": "a1",
              "type": "uint256"
            },
            {
              "internalType": "uint256",
              "name": "b1",
              "type": "uint256"
            },
            {
              "internalType": "uint256",
              "name": "a2",
              "type": "uint256"
            },
            {
              "internalType": "uint256",
              "name": "b2",
              "type": "uint256"
            }
          ],
          "internalType": "struct OrderedReserves",
          "name": "reserves",
          "type": "tuple"
        }
      ],
      "name": "_calcBorrowAmount",
      "outputs": [
        {
          "internalType": "uint256",
          "name": "",
          "type": "uint256"
        }
      ],
      "stateMutability": "pure",
      "type": "function"
    },
    {
      "inputs": [
        {
          "internalType": "int256",
          "name": "a",
          "type": "int256"
        },
        {
          "internalType": "int256",
          "name": "b",
          "type": "int256"
        },
        {
          "internalType": "int256",
          "name": "c",
          "type": "int256"
        }
      ],
      "name": "_calcSolutionForQuadratic",
      "outputs": [
        {
          "internalType": "int256",
          "name": "",
          "type": "int256"
        },
        {
          "internalType": "int256",
          "name": "",
          "type": "int256"
        }
      ],
      "stateMutability": "pure",
      "type": "function"
    },
    {
      "inputs": [
        {
          "internalType": "uint256",
          "name": "n",
          "type": "uint256"
        }
      ],
      "name": "_sqrt",
      "outputs": [
        {
          "internalType": "uint256",
          "name": "",
          "type": "uint256"
        }
      ],
      "stateMutability": "pure",
      "type": "function"
    }
  ],
  "bytecode": "0x60a060405260018060006101000a81548173ffffffffffffffffffffffffffffffffffffffff021916908373ffffffffffffffffffffffffffffffffffffffff1602179055503480156200005257600080fd5b5060016000620000676200015f60201b60201c565b9050806000806101000a81548173ffffffffffffffffffffffffffffffffffffffff021916908373ffffffffffffffffffffffffffffffffffffffff1602179055508073ffffffffffffffffffffffffffffffffffffffff16600073ffffffffffffffffffffffffffffffffffffffff167f8be0079c531659141344cd1fd0a4f28419497f9722a3daafe3b4186f6b6457e060405160405180910390a3508073ffffffffffffffffffffffffffffffffffffffff1660808173ffffffffffffffffffffffffffffffffffffffff1660601b81525050620001578160026200016760201b620017a81790919060201c565b50506200023c565b600033905090565b600062000197836000018373ffffffffffffffffffffffffffffffffffffffff1660001b6200019f60201b60201c565b905092915050565b6000620001b383836200021960201b60201c565b6200020e57826000018290806001815401808255809150506001900390600052602060002001600090919091909150558260000180549050836001016000848152602001908152602001600020819055506001905062000213565b600090505b92915050565b600080836001016000848152602001908152602001600020541415905092915050565b60805160601c614a946200025b60003960006111c10152614a946000f3fe6080604052600436106100e15760003560e01c8063759eee101161007f578063baee64f111610059578063baee64f114610321578063bbd1e1221461034a578063bed64c2f14610373578063f2fde38b1461039e576100e8565b8063759eee101461028f57806383e280d9146102cd5780638da5cb5b146102f6576100e8565b80633ccfd60b116100bb5780633ccfd60b146101e75780635e3e73ce146101fe5780636a263f021461023b578063715018a614610278576100e8565b806310d1e85c1461014357806317c1e4dd1461016c57806321d09426146101aa576100e8565b366100e857005b3480156100f457600080fd5b5060003660606000806000808686600490809261011393929190614204565b810190610120919061323c565b9350935093509350610134848484846103c7565b50505050915050805190602001f35b34801561014f57600080fd5b5061016a600480360381019061016591906132f3565b6103c7565b005b34801561017857600080fd5b50610193600480360381019061018e9190613397565b610670565b6040516101a1929190613db1565b60405180910390f35b3480156101b657600080fd5b506101d160048036038101906101cc91906131ea565b61068a565b6040516101de9190613d96565b60405180910390f35b3480156101f357600080fd5b506101fc6106a7565b005b34801561020a57600080fd5b506102256004803603810190610220919061340f565b6108bd565b6040516102329190614097565b60405180910390f35b34801561024757600080fd5b50610262600480360381019061025d9190613487565b6108cf565b60405161026f9190614097565b60405180910390f35b34801561028457600080fd5b5061028d6108e1565b005b34801561029b57600080fd5b506102b660048036038101906102b191906132b7565b610a1b565b6040516102c49291906140b2565b60405180910390f35b3480156102d957600080fd5b506102f460048036038101906102ef91906131ea565b610baf565b005b34801561030257600080fd5b5061030b610c86565b6040516103189190613d30565b60405180910390f35b34801561032d57600080fd5b50610348600480360381019061034391906132b7565b610caf565b005b34801561035657600080fd5b50610371600480360381019061036c91906131ea565b6112d0565b005b34801561037f57600080fd5b506103886114d4565b6040516103959190613d74565b60405180910390f35b3480156103aa57600080fd5b506103c560048036038101906103c091906131ea565b6115ff565b005b600160009054906101000a900473ffffffffffffffffffffffffffffffffffffffff1673ffffffffffffffffffffffffffffffffffffffff163373ffffffffffffffffffffffffffffffffffffffff1614610457576040517f08c379a000000000000000000000000000000000000000000000000000000000815260040161044e90613ebc565b60405180910390fd5b3073ffffffffffffffffffffffffffffffffffffffff168473ffffffffffffffffffffffffffffffffffffffff16146104c5576040517f08c379a00000000000000000000000000000000000000000000000000000000081526004016104bc90613efc565b60405180910390fd5b60008084116104d457826104d6565b835b90506000828060200190518101906104ee91906133e6565b9050610523816020015183836060015173ffffffffffffffffffffffffffffffffffffffff166117d89092919063ffffffff16565b600080826040015161053b5760008360c00151610543565b8260c0015160005b91509150826020015173ffffffffffffffffffffffffffffffffffffffff1663022c0d9f838330600067ffffffffffffffff8111156105ab577f4e487b7100000000000000000000000000000000000000000000000000000000600052604160045260246000fd5b6040519080825280601f01601f1916602001820160405280156105dd5781602001600182028036833780820191505090505b506040518563ffffffff1660e01b81526004016105fd94939291906140db565b600060405180830381600087803b15801561061757600080fd5b505af115801561062b573d6000803e3d6000fd5b5050505061066683600001518460a00151856080015173ffffffffffffffffffffffffffffffffffffffff166117d89092919063ffffffff16565b5050505050505050565b60008061067e85858561185e565b91509150935093915050565b60006106a082600261194a90919063ffffffff16565b9050919050565b6000479050600081111561074f576106bd610c86565b73ffffffffffffffffffffffffffffffffffffffff166108fc829081150290604051600060405180830381858888f19350505050158015610702573d6000803e3d6000fd5b508061070c610c86565b73ffffffffffffffffffffffffffffffffffffffff167f7084f5476618d8e60b11ef0d7d3f06914655adb8793e28ff7f018d4c76d505d560405160405180910390a35b60005b61075c600261197a565b8110156108b957600061077982600261198f90919063ffffffff16565b90508073ffffffffffffffffffffffffffffffffffffffff166370a08231306040518263ffffffff1660e01b81526004016107b49190613d30565b60206040518083038186803b1580156107cc57600080fd5b505afa1580156107e0573d6000803e3d6000fd5b505050506040513d601f19601f8201168201806040525081019061080491906134b0565b925060008311156108a5578073ffffffffffffffffffffffffffffffffffffffff1663a9059cbb610833610c86565b856040518363ffffffff1660e01b8152600401610851929190613d4b565b602060405180830381600087803b15801561086b57600080fd5b505af115801561087f573d6000803e3d6000fd5b505050506040513d601f19601f820116820180604052508101906108a3919061336e565b505b5080806108b190614880565b915050610752565b5050565b60006108c8826119a9565b9050919050565b60006108da82611d10565b9050919050565b6108e9611dcd565b73ffffffffffffffffffffffffffffffffffffffff16610907610c86565b73ffffffffffffffffffffffffffffffffffffffff161461095d576040517f08c379a000000000000000000000000000000000000000000000000000000000815260040161095490613f5c565b60405180910390fd5b600073ffffffffffffffffffffffffffffffffffffffff1660008054906101000a900473ffffffffffffffffffffffffffffffffffffffff1673ffffffffffffffffffffffffffffffffffffffff167f8be0079c531659141344cd1fd0a4f28419497f9722a3daafe3b4186f6b6457e060405160405180910390a360008060006101000a81548173ffffffffffffffffffffffffffffffffffffffff021916908373ffffffffffffffffffffffffffffffffffffffff160217905550565b6000806000610a2a8585611dd5565b5050905080610ab6578473ffffffffffffffffffffffffffffffffffffffff1663d21220a76040518163ffffffff1660e01b815260040160206040518083038186803b158015610a7957600080fd5b505afa158015610a8d573d6000803e3d6000fd5b505050506040513d601f19601f82011682018060405250810190610ab19190613213565b610b35565b8473ffffffffffffffffffffffffffffffffffffffff16630dfe16816040518163ffffffff1660e01b815260040160206040518083038186803b158015610afc57600080fd5b505afa158015610b10573d6000803e3d6000fd5b505050506040513d601f19601f82011682018060405250810190610b349190613213565b5b91506000610b44868684612223565b925050506000610b53826119a9565b90506000610b6a82846000015185602001516124a7565b90506000610b8183856060015186604001516125ba565b905081811015610b945760009650610ba3565b8181610ba0919061476f565b96505b50505050509250929050565b610bb7611dcd565b73ffffffffffffffffffffffffffffffffffffffff16610bd5610c86565b73ffffffffffffffffffffffffffffffffffffffff1614610c2b576040517f08c379a0000000000000000000000000000000000000000000000000000000008152600401610c2290613f5c565b60405180910390fd5b610c3f8160026117a890919063ffffffff16565b508073ffffffffffffffffffffffffffffffffffffffff167ffa1388d6e7328e9c711a539b0addfc27de8bfb6f5924cce26f80f41023b1525360405160405180910390a250565b60008060009054906101000a900473ffffffffffffffffffffffffffffffffffffffff16905090565b610cb7612e46565b610cc18383611dd5565b8360400184600001856020018373ffffffffffffffffffffffffffffffffffffffff1673ffffffffffffffffffffffffffffffffffffffff168152508373ffffffffffffffffffffffffffffffffffffffff1673ffffffffffffffffffffffffffffffffffffffff168152508315151515815250505050610d40612ecf565b610d4f84848460400151612223565b84606001856080018295508373ffffffffffffffffffffffffffffffffffffffff1673ffffffffffffffffffffffffffffffffffffffff168152508373ffffffffffffffffffffffffffffffffffffffff1673ffffffffffffffffffffffffffffffffffffffff168152505050508160600151600160006101000a81548173ffffffffffffffffffffffffffffffffffffffff021916908373ffffffffffffffffffffffffffffffffffffffff1602179055506000826000015173ffffffffffffffffffffffffffffffffffffffff166370a08231306040518263ffffffff1660e01b8152600401610e419190613d30565b60206040518083038186803b158015610e5957600080fd5b505afa158015610e6d573d6000803e3d6000fd5b505050506040513d601f19601f82011682018060405250810190610e9191906134b0565b90506000610e9e836119a9565b90506000808560400151610eb457826000610eb8565b6000835b915091506000610ed184876000015188602001516124a7565b90506000610ee885886060015189604001516125ba565b9050818111610f2c576040517f08c379a0000000000000000000000000000000000000000000000000000000008152600401610f2390613f7c565b60405180910390fd5b610f34612ef7565b8860600151816000019073ffffffffffffffffffffffffffffffffffffffff16908173ffffffffffffffffffffffffffffffffffffffff16815250508860800151816020019073ffffffffffffffffffffffffffffffffffffffff16908173ffffffffffffffffffffffffffffffffffffffff168152505088604001518160400190151590811515815250508860200151816060019073ffffffffffffffffffffffffffffffffffffffff16908173ffffffffffffffffffffffffffffffffffffffff16815250508860000151816080019073ffffffffffffffffffffffffffffffffffffffff16908173ffffffffffffffffffffffffffffffffffffffff1681525050828160a0018181525050818160c001818152505060008160405160200161105f919061407c565b6040516020818303038152906040529050896060015173ffffffffffffffffffffffffffffffffffffffff1663022c0d9f878730856040518563ffffffff1660e01b81526004016110b394939291906140db565b600060405180830381600087803b1580156110cd57600080fd5b505af11580156110e1573d6000803e3d6000fd5b50505050505050505050506000836000015173ffffffffffffffffffffffffffffffffffffffff166370a08231306040518263ffffffff1660e01b815260040161112b9190613d30565b60206040518083038186803b15801561114357600080fd5b505afa158015611157573d6000803e3d6000fd5b505050506040513d601f19601f8201168201806040525081019061117b91906134b0565b90508181116111bf576040517f08c379a00000000000000000000000000000000000000000000000000000000081526004016111b690613e3c565b60405180910390fd5b7f000000000000000000000000000000000000000000000000000000000000000073ffffffffffffffffffffffffffffffffffffffff16846000015173ffffffffffffffffffffffffffffffffffffffff16141561128757836000015173ffffffffffffffffffffffffffffffffffffffff16632e1a7d4d826040518263ffffffff1660e01b81526004016112549190614097565b600060405180830381600087803b15801561126e57600080fd5b505af1158015611282573d6000803e3d6000fd5b505050505b60018060006101000a81548173ffffffffffffffffffffffffffffffffffffffff021916908373ffffffffffffffffffffffffffffffffffffffff160217905550505050505050565b6112d8611dcd565b73ffffffffffffffffffffffffffffffffffffffff166112f6610c86565b73ffffffffffffffffffffffffffffffffffffffff161461134c576040517f08c379a000000000000000000000000000000000000000000000000000000000815260040161134390613f5c565b60405180910390fd5b60008173ffffffffffffffffffffffffffffffffffffffff166370a08231306040518263ffffffff1660e01b81526004016113879190613d30565b60206040518083038186803b15801561139f57600080fd5b505afa1580156113b3573d6000803e3d6000fd5b505050506040513d601f19601f820116820180604052508101906113d791906134b0565b90506000811115611478578173ffffffffffffffffffffffffffffffffffffffff1663a9059cbb611406610c86565b836040518363ffffffff1660e01b8152600401611424929190613d4b565b602060405180830381600087803b15801561143e57600080fd5b505af1158015611452573d6000803e3d6000fd5b505050506040513d601f19601f82011682018060405250810190611476919061336e565b505b61148c8260026126c090919063ffffffff16565b508173ffffffffffffffffffffffffffffffffffffffff167fdc23a849435922f20a9732eb85192a9d0c1cb34725ebe6d7de0be10212ba02fb60405160405180910390a25050565b606060006114e2600261197a565b90508067ffffffffffffffff811115611524577f4e487b7100000000000000000000000000000000000000000000000000000000600052604160045260246000fd5b6040519080825280602002602001820160405280156115525781602001602082028036833780820191505090505b50915060005b818110156115fa5761157481600261198f90919063ffffffff16565b8382815181106115ad577f4e487b7100000000000000000000000000000000000000000000000000000000600052603260045260246000fd5b602002602001019073ffffffffffffffffffffffffffffffffffffffff16908173ffffffffffffffffffffffffffffffffffffffff168152505080806115f290614880565b915050611558565b505090565b611607611dcd565b73ffffffffffffffffffffffffffffffffffffffff16611625610c86565b73ffffffffffffffffffffffffffffffffffffffff161461167b576040517f08c379a000000000000000000000000000000000000000000000000000000000815260040161167290613f5c565b60405180910390fd5b600073ffffffffffffffffffffffffffffffffffffffff168173ffffffffffffffffffffffffffffffffffffffff1614156116eb576040517f08c379a00000000000000000000000000000000000000000000000000000000081526004016116e290613e7c565b60405180910390fd5b8073ffffffffffffffffffffffffffffffffffffffff1660008054906101000a900473ffffffffffffffffffffffffffffffffffffffff1673ffffffffffffffffffffffffffffffffffffffff167f8be0079c531659141344cd1fd0a4f28419497f9722a3daafe3b4186f6b6457e060405160405180910390a3806000806101000a81548173ffffffffffffffffffffffffffffffffffffffff021916908373ffffffffffffffffffffffffffffffffffffffff16021790555050565b60006117d0836000018373ffffffffffffffffffffffffffffffffffffffff1660001b6126f0565b905092915050565b6118598363a9059cbb60e01b84846040516024016117f7929190613d4b565b604051602081830303815290604052907bffffffffffffffffffffffffffffffffffffffffffffffffffffffff19166020820180517bffffffffffffffffffffffffffffffffffffffffffffffffffffffff8381831617835250505050612760565b505050565b600080600083866004611871919061456a565b61187b919061456a565b60028661188891906144fe565b61189291906146db565b9050600081136118d7576040517f08c379a00000000000000000000000000000000000000000000000000000000081526004016118ce90613f9c565b60405180910390fd5b60006118e282611d10565b90508660026118f1919061456a565b81876118fc906148c9565b6119069190614237565b6119109190614321565b935086600261191f919061456a565b818761192a906148c9565b61193491906146db565b61193e9190614321565b92505050935093915050565b6000611972836000018373ffffffffffffffffffffffffffffffffffffffff1660001b612827565b905092915050565b60006119888260000161284a565b9050919050565b600061199e836000018361285b565b60001c905092915050565b60008082602001518360000151106119c55782602001516119cb565b82600001515b9050600083606001518460400151106119e85783606001516119ee565b83604001515b905060008183106119ff5781611a01565b825b9050600069d3c21bcecceda1000000821115611a285768056bc75e2d631000009050611b52565b69152d02c7e14af6800000821115611a4a57678ac7230489e800009050611b51565b69021e19e0c9bab2400000821115611a6c57670de0b6b3a76400009050611b50565b683635c9adc5dea00000821115611a8d5767016345785d8a00009050611b4f565b68056bc75e2d63100000821115611aad57662386f26fc100009050611b4e565b678ac7230489e80000821115611acc5766038d7ea4c680009050611b4d565b670de0b6b3a7640000821115611aea57655af3107a40009050611b4c565b67016345785d8a0000821115611b08576509184e72a0009050611b4b565b662386f26fc10000821115611b245764e8d4a510009050611b4a565b66038d7ea4c68000821115611b405764174876e8009050611b49565b6402540be40090505b5b5b5b5b5b5b5b5b5b600080600080848a60000151611b68919061438b565b858b60400151611b78919061438b565b868c60200151611b88919061438b565b878d60600151611b98919061438b565b935093509350935060008184611bae919061456a565b8386611bba919061456a565b611bc491906146db565b905060008486611bd49190614237565b83856002611be2919061456a565b611bec919061456a565b611bf6919061456a565b905060008486611c06919061456a565b8488611c12919061456a565b611c1c91906146db565b8486611c28919061456a565b611c32919061456a565b9050600080611c4285858561185e565b91509150600082138015611c5557508682125b8015611c6057508582125b80611c815750600082138015611c7557508682125b8015611c8057508582125b5b611cc0576040517f08c379a0000000000000000000000000000000000000000000000000000000008152600401611cb790613e1c565b60405180910390fd5b600082138015611ccf57508682125b8015611cda57508582125b611cef578981611cea9190614681565b611cfc565b8982611cfb9190614681565b5b9d5050505050505050505050505050919050565b600060018211611d49577f4e487b7100000000000000000000000000000000000000000000000000000000600052600160045260246000fd5b6000620f424083611d5a9190614681565b9050600081905081925060005b600115611db55760028483611d7c919061438b565b85611d8791906142cb565b611d91919061438b565b90506103e88185611da2919061476f565b1015611dad57611db5565b809350611d67565b6103e884611dc3919061438b565b9350505050919050565b600033905090565b60008060008373ffffffffffffffffffffffffffffffffffffffff168573ffffffffffffffffffffffffffffffffffffffff161415611e49576040517f08c379a0000000000000000000000000000000000000000000000000000000008152600401611e4090613fdc565b60405180910390fd5b6000808673ffffffffffffffffffffffffffffffffffffffff16630dfe16816040518163ffffffff1660e01b815260040160206040518083038186803b158015611e9257600080fd5b505afa158015611ea6573d6000803e3d6000fd5b505050506040513d601f19601f82011682018060405250810190611eca9190613213565b8773ffffffffffffffffffffffffffffffffffffffff1663d21220a76040518163ffffffff1660e01b815260040160206040518083038186803b158015611f1057600080fd5b505afa158015611f24573d6000803e3d6000fd5b505050506040513d601f19601f82011682018060405250810190611f489190613213565b915091506000808773ffffffffffffffffffffffffffffffffffffffff16630dfe16816040518163ffffffff1660e01b815260040160206040518083038186803b158015611f9557600080fd5b505afa158015611fa9573d6000803e3d6000fd5b505050506040513d601f19601f82011682018060405250810190611fcd9190613213565b8873ffffffffffffffffffffffffffffffffffffffff1663d21220a76040518163ffffffff1660e01b815260040160206040518083038186803b15801561201357600080fd5b505afa158015612027573d6000803e3d6000fd5b505050506040513d601f19601f8201168201806040525081019061204b9190613213565b915091508273ffffffffffffffffffffffffffffffffffffffff168473ffffffffffffffffffffffffffffffffffffffff161080156120b557508073ffffffffffffffffffffffffffffffffffffffff168273ffffffffffffffffffffffffffffffffffffffff16105b6120f4576040517f08c379a00000000000000000000000000000000000000000000000000000000081526004016120eb90613e5c565b60405180910390fd5b8173ffffffffffffffffffffffffffffffffffffffff168473ffffffffffffffffffffffffffffffffffffffff1614801561215a57508073ffffffffffffffffffffffffffffffffffffffff168373ffffffffffffffffffffffffffffffffffffffff16145b612199576040517f08c379a00000000000000000000000000000000000000000000000000000000081526004016121909061403c565b60405180910390fd5b6121a28461068a565b806121b257506121b18361068a565b5b6121f1576040517f08c379a00000000000000000000000000000000000000000000000000000000081526004016121e890613ffc565b60405180910390fd5b6121fa8461068a565b612207576000838561220c565b600184845b809750819850829950505050505050509250925092565b60008061222e612ecf565b6000808773ffffffffffffffffffffffffffffffffffffffff16630902f1ac6040518163ffffffff1660e01b815260040160606040518083038186803b15801561227757600080fd5b505afa15801561228b573d6000803e3d6000fd5b505050506040513d601f19601f820116820180604052508101906122af9190613438565b506dffffffffffffffffffffffffffff1691506dffffffffffffffffffffffffffff1691506000808873ffffffffffffffffffffffffffffffffffffffff16630902f1ac6040518163ffffffff1660e01b815260040160606040518083038186803b15801561231d57600080fd5b505afa158015612331573d6000803e3d6000fd5b505050506040513d601f19601f820116820180604052508101906123559190613438565b506dffffffffffffffffffffffffffff1691506dffffffffffffffffffffffffffff169150600080896123bd5761239d8661238f876128f5565b61292d90919063ffffffff16565b6123b8856123aa866128f5565b61292d90919063ffffffff16565b6123f4565b6123d8856123ca886128f5565b61292d90919063ffffffff16565b6123f3846123e5876128f5565b61292d90919063ffffffff16565b5b9150915061240b818361296290919063ffffffff16565b15612456578b8b809950819a50505089612428578486848661242d565b858585855b8a6000018b6020018c6040018d6060018481525084815250848152508481525050505050612498565b8a8c809950819a5050508961246e5782848688612473565b838387875b8a6000018b6020018c6040018d60600184815250848152508481525084815250505050505b50505050505093509350939050565b60008084116124eb576040517f08c379a00000000000000000000000000000000000000000000000000000000081526004016124e290613e9c565b60405180910390fd5b6000831180156124fb5750600082115b61253a576040517f08c379a000000000000000000000000000000000000000000000000000000000815260040161253190613f1c565b60405180910390fd5b60006125636103e8612555878761297890919063ffffffff16565b61297890919063ffffffff16565b9050600061258e6103e5612580888761298e90919063ffffffff16565b61297890919063ffffffff16565b90506125af600182846125a1919061438b565b6129a490919063ffffffff16565b925050509392505050565b60008084116125fe576040517f08c379a00000000000000000000000000000000000000000000000000000000081526004016125f59061405c565b60405180910390fd5b60008311801561260e5750600082115b61264d576040517f08c379a000000000000000000000000000000000000000000000000000000000815260040161264490613f1c565b60405180910390fd5b60006126646103e58661297890919063ffffffff16565b9050600061267b848361297890919063ffffffff16565b905060006126a6836126986103e88961297890919063ffffffff16565b6129a490919063ffffffff16565b905080826126b4919061438b565b93505050509392505050565b60006126e8836000018373ffffffffffffffffffffffffffffffffffffffff1660001b6129ba565b905092915050565b60006126fc8383612827565b61275557826000018290806001815401808255809150506001900390600052602060002001600090919091909150558260000180549050836001016000848152602001908152602001600020819055506001905061275a565b600090505b92915050565b60006127c2826040518060400160405280602081526020017f5361666545524332303a206c6f772d6c6576656c2063616c6c206661696c65648152508573ffffffffffffffffffffffffffffffffffffffff16612b389092919063ffffffff16565b905060008151111561282257808060200190518101906127e2919061336e565b612821576040517f08c379a00000000000000000000000000000000000000000000000000000000081526004016128189061401c565b60405180910390fd5b5b505050565b600080836001016000848152602001908152602001600020541415905092915050565b600081600001805490509050919050565b6000818360000180549050116128a6576040517f08c379a000000000000000000000000000000000000000000000000000000000815260040161289d90613dfc565b60405180910390fd5b8260000182815481106128e2577f4e487b7100000000000000000000000000000000000000000000000000000000600052603260045260246000fd5b9060005260206000200154905092915050565b6128fd612f8e565b6040518060200160405280612923670de0b6b3a764000085612b5090919063ffffffff16565b8152509050919050565b612935612f8e565b6040518060200160405280612957848660000151612bcb90919063ffffffff16565b815250905092915050565b60008061296f8484612c15565b14905092915050565b600081836129869190614681565b905092915050565b6000818361299c919061476f565b905092915050565b600081836129b291906142cb565b905092915050565b60008083600101600084815260200190815260200160002054905060008114612b2c5760006001826129ec919061476f565b9050600060018660000180549050612a04919061476f565b90506000866000018281548110612a44577f4e487b7100000000000000000000000000000000000000000000000000000000600052603260045260246000fd5b9060005260206000200154905080876000018481548110612a8e577f4e487b7100000000000000000000000000000000000000000000000000000000600052603260045260246000fd5b9060005260206000200181905550838760010160008381526020019081526020016000208190555086600001805480612af0577f4e487b7100000000000000000000000000000000000000000000000000000000600052603160045260246000fd5b60019003818190600052602060002001600090559055866001016000878152602001908152602001600020600090556001945050505050612b32565b60009150505b92915050565b6060612b478484600085612c55565b90509392505050565b600080831415612b635760009050612bc5565b60008284612b719190614681565b9050828482612b80919061438b565b14612bc0576040517f08c379a0000000000000000000000000000000000000000000000000000000008152600401612bb790613f3c565b60405180910390fd5b809150505b92915050565b6000612c0d83836040518060400160405280601a81526020017f536166654d6174683a206469766973696f6e206279207a65726f000000000000815250612d69565b905092915050565b6000816000015183600001511415612c305760019050612c4f565b8160000151836000015111612c46576000612c49565b60025b60ff1690505b92915050565b606082471015612c9a576040517f08c379a0000000000000000000000000000000000000000000000000000000008152600401612c9190613edc565b60405180910390fd5b612ca385612dcc565b612ce2576040517f08c379a0000000000000000000000000000000000000000000000000000000008152600401612cd990613fbc565b60405180910390fd5b6000808673ffffffffffffffffffffffffffffffffffffffff168587604051612d0b9190613d19565b60006040518083038185875af1925050503d8060008114612d48576040519150601f19603f3d011682016040523d82523d6000602084013e612d4d565b606091505b5091509150612d5d828286612ddf565b92505050949350505050565b60008083118290612db0576040517f08c379a0000000000000000000000000000000000000000000000000000000008152600401612da79190613dda565b60405180910390fd5b5060008385612dbf919061438b565b9050809150509392505050565b600080823b905060008111915050919050565b60608315612def57829050612e3f565b600083511115612e025782518084602001fd5b816040517f08c379a0000000000000000000000000000000000000000000000000000000008152600401612e369190613dda565b60405180910390fd5b9392505050565b6040518060a00160405280600073ffffffffffffffffffffffffffffffffffffffff168152602001600073ffffffffffffffffffffffffffffffffffffffff168152602001600015158152602001600073ffffffffffffffffffffffffffffffffffffffff168152602001600073ffffffffffffffffffffffffffffffffffffffff1681525090565b6040518060800160405280600081526020016000815260200160008152602001600081525090565b6040518060e00160405280600073ffffffffffffffffffffffffffffffffffffffff168152602001600073ffffffffffffffffffffffffffffffffffffffff168152602001600015158152602001600073ffffffffffffffffffffffffffffffffffffffff168152602001600073ffffffffffffffffffffffffffffffffffffffff16815260200160008152602001600081525090565b6040518060200160405280600081525090565b6000612fb4612faf84614158565b614127565b905082815260208101848484011115612fcc57600080fd5b612fd784828561483e565b509392505050565b600081359050612fee816149bd565b92915050565b600081519050613003816149bd565b92915050565b600081359050613018816149d4565b92915050565b60008151905061302d816149eb565b92915050565b600082601f83011261304457600080fd5b8135613054848260208601612fa1565b91505092915050565b60008135905061306c81614a02565b92915050565b600060e0828403121561308457600080fd5b61308e60e0614127565b9050600061309e84828501612ff4565b60008301525060206130b284828501612ff4565b60208301525060406130c68482850161301e565b60408301525060606130da84828501612ff4565b60608301525060806130ee84828501612ff4565b60808301525060a0613102848285016131c0565b60a08301525060c0613116848285016131c0565b60c08301525092915050565b60006080828403121561313457600080fd5b61313e6080614127565b9050600061314e848285016131ab565b6000830152506020613162848285016131ab565b6020830152506040613176848285016131ab565b604083015250606061318a848285016131ab565b60608301525092915050565b6000815190506131a581614a19565b92915050565b6000813590506131ba81614a30565b92915050565b6000815190506131cf81614a30565b92915050565b6000815190506131e481614a47565b92915050565b6000602082840312156131fc57600080fd5b600061320a84828501612fdf565b91505092915050565b60006020828403121561322557600080fd5b600061323384828501612ff4565b91505092915050565b6000806000806080858703121561325257600080fd5b600061326087828801613009565b9450506020613271878288016131ab565b9350506040613282878288016131ab565b925050606085013567ffffffffffffffff81111561329f57600080fd5b6132ab87828801613033565b91505092959194509250565b600080604083850312156132ca57600080fd5b60006132d885828601612fdf565b92505060206132e985828601612fdf565b9150509250929050565b6000806000806080858703121561330957600080fd5b600061331787828801612fdf565b9450506020613328878288016131ab565b9350506040613339878288016131ab565b925050606085013567ffffffffffffffff81111561335657600080fd5b61336287828801613033565b91505092959194509250565b60006020828403121561338057600080fd5b600061338e8482850161301e565b91505092915050565b6000806000606084860312156133ac57600080fd5b60006133ba8682870161305d565b93505060206133cb8682870161305d565b92505060406133dc8682870161305d565b9150509250925092565b600060e082840312156133f857600080fd5b600061340684828501613072565b91505092915050565b60006080828403121561342157600080fd5b600061342f84828501613122565b91505092915050565b60008060006060848603121561344d57600080fd5b600061345b86828701613196565b935050602061346c86828701613196565b925050604061347d868287016131d5565b9150509250925092565b60006020828403121561349957600080fd5b60006134a7848285016131ab565b91505092915050565b6000602082840312156134c257600080fd5b60006134d0848285016131c0565b91505092915050565b60006134e583836134f1565b60208301905092915050565b6134fa816147a3565b82525050565b613509816147a3565b82525050565b600061351a82614198565b61352481856141c6565b935061352f83614188565b8060005b8381101561356057815161354788826134d9565b9750613552836141b9565b925050600181019050613533565b5085935050505092915050565b613576816147c7565b82525050565b613585816147c7565b82525050565b6000613596826141a3565b6135a081856141d7565b93506135b081856020860161484d565b6135b98161499f565b840191505092915050565b60006135cf826141a3565b6135d981856141e8565b93506135e981856020860161484d565b80840191505092915050565b6135fe816147d3565b82525050565b600061360f826141ae565b61361981856141f3565b935061362981856020860161484d565b6136328161499f565b840191505092915050565b600061364a6022836141f3565b91507f456e756d657261626c655365743a20696e646578206f7574206f6620626f756e60008301527f64730000000000000000000000000000000000000000000000000000000000006020830152604082019050919050565b60006136b06011836141f3565b91507f57726f6e6720696e707574206f726465720000000000000000000000000000006000830152602082019050919050565b60006136f0600c836141f3565b91507f4c6f73696e67206d6f6e657900000000000000000000000000000000000000006000830152602082019050919050565b6000613730601d836141f3565b91507f4e6f6e207374616e6461726420756e697377617020414d4d20706169720000006000830152602082019050919050565b60006137706026836141f3565b91507f4f776e61626c653a206e6577206f776e657220697320746865207a65726f206160008301527f64647265737300000000000000000000000000000000000000000000000000006020830152604082019050919050565b60006137d6602c836141f3565b91507f556e697377617056324c6962726172793a20494e53554646494349454e545f4f60008301527f55545055545f414d4f554e5400000000000000000000000000000000000000006020830152604082019050919050565b600061383c601d836141f3565b91507f4e6f6e207065726d697373696f6e656420616464726573732063616c6c0000006000830152602082019050919050565b600061387c6026836141f3565b91507f416464726573733a20696e73756666696369656e742062616c616e636520666f60008301527f722063616c6c00000000000000000000000000000000000000000000000000006020830152604082019050919050565b60006138e26016836141f3565b91507f4e6f742066726f6d207468697320636f6e7472616374000000000000000000006000830152602082019050919050565b60006139226028836141f3565b91507f556e697377617056324c6962726172793a20494e53554646494349454e545f4c60008301527f49515549444954590000000000000000000000000000000000000000000000006020830152604082019050919050565b60006139886021836141f3565b91507f536166654d6174683a206d756c7469706c69636174696f6e206f766572666c6f60008301527f77000000000000000000000000000000000000000000000000000000000000006020830152604082019050919050565b60006139ee6020836141f3565b91507f4f776e61626c653a2063616c6c6572206973206e6f7420746865206f776e65726000830152602082019050919050565b6000613a2e6019836141f3565b91507f417262697472616765206661696c2c206e6f2070726f666974000000000000006000830152602082019050919050565b6000613a6e600e836141f3565b91507f436f6d706c6578206e756d6265720000000000000000000000000000000000006000830152602082019050919050565b6000613aae601d836141f3565b91507f416464726573733a2063616c6c20746f206e6f6e2d636f6e74726163740000006000830152602082019050919050565b6000613aee6011836141f3565b91507f53616d65207061697220616464726573730000000000000000000000000000006000830152602082019050919050565b6000613b2e6015836141f3565b91507f4e6f206261736520746f6b656e20696e207061697200000000000000000000006000830152602082019050919050565b6000613b6e602a836141f3565b91507f5361666545524332303a204552433230206f7065726174696f6e20646964206e60008301527f6f742073756363656564000000000000000000000000000000000000000000006020830152604082019050919050565b6000613bd46017836141f3565b91507f526571756972652073616d6520746f6b656e20706169720000000000000000006000830152602082019050919050565b6000613c14602b836141f3565b91507f556e697377617056324c6962726172793a20494e53554646494349454e545f4960008301527f4e5055545f414d4f554e540000000000000000000000000000000000000000006020830152604082019050919050565b60e082016000820151613c8360008501826134f1565b506020820151613c9660208501826134f1565b506040820151613ca9604085018261356d565b506060820151613cbc60608501826134f1565b506080820151613ccf60808501826134f1565b5060a0820151613ce260a0850182613cfb565b5060c0820151613cf560c0850182613cfb565b50505050565b613d0481614817565b82525050565b613d1381614817565b82525050565b6000613d2582846135c4565b915081905092915050565b6000602082019050613d456000830184613500565b92915050565b6000604082019050613d606000830185613500565b613d6d6020830184613d0a565b9392505050565b60006020820190508181036000830152613d8e818461350f565b905092915050565b6000602082019050613dab600083018461357c565b92915050565b6000604082019050613dc660008301856135f5565b613dd360208301846135f5565b9392505050565b60006020820190508181036000830152613df48184613604565b905092915050565b60006020820190508181036000830152613e158161363d565b9050919050565b60006020820190508181036000830152613e35816136a3565b9050919050565b60006020820190508181036000830152613e55816136e3565b9050919050565b60006020820190508181036000830152613e7581613723565b9050919050565b60006020820190508181036000830152613e9581613763565b9050919050565b60006020820190508181036000830152613eb5816137c9565b9050919050565b60006020820190508181036000830152613ed58161382f565b9050919050565b60006020820190508181036000830152613ef58161386f565b9050919050565b60006020820190508181036000830152613f15816138d5565b9050919050565b60006020820190508181036000830152613f3581613915565b9050919050565b60006020820190508181036000830152613f558161397b565b9050919050565b60006020820190508181036000830152613f75816139e1565b9050919050565b60006020820190508181036000830152613f9581613a21565b9050919050565b60006020820190508181036000830152613fb581613a61565b9050919050565b60006020820190508181036000830152613fd581613aa1565b9050919050565b60006020820190508181036000830152613ff581613ae1565b9050919050565b6000602082019050818103600083015261401581613b21565b9050919050565b6000602082019050818103600083015261403581613b61565b9050919050565b6000602082019050818103600083015261405581613bc7565b9050919050565b6000602082019050818103600083015261407581613c07565b9050919050565b600060e0820190506140916000830184613c6d565b92915050565b60006020820190506140ac6000830184613d0a565b92915050565b60006040820190506140c76000830185613d0a565b6140d46020830184613500565b9392505050565b60006080820190506140f06000830187613d0a565b6140fd6020830186613d0a565b61410a6040830185613500565b818103606083015261411c818461358b565b905095945050505050565b6000604051905081810181811067ffffffffffffffff8211171561414e5761414d614970565b5b8060405250919050565b600067ffffffffffffffff82111561417357614172614970565b5b601f19601f8301169050602081019050919050565b6000819050602082019050919050565b600081519050919050565b600081519050919050565b600081519050919050565b6000602082019050919050565b600082825260208201905092915050565b600082825260208201905092915050565b600081905092915050565b600082825260208201905092915050565b6000808585111561421457600080fd5b8386111561422157600080fd5b6001850283019150848603905094509492505050565b6000614242826147d3565b915061424d836147d3565b9250817f7fffffffffffffffffffffffffffffffffffffffffffffffffffffffffffffff0383136000831215161561428857614287614912565b5b817f80000000000000000000000000000000000000000000000000000000000000000383126000831216156142c0576142bf614912565b5b828201905092915050565b60006142d682614817565b91506142e183614817565b9250827fffffffffffffffffffffffffffffffffffffffffffffffffffffffffffffffff0382111561431657614315614912565b5b828201905092915050565b600061432c826147d3565b9150614337836147d3565b92508261434757614346614941565b5b600160000383147f8000000000000000000000000000000000000000000000000000000000000000831416156143805761437f614912565b5b828205905092915050565b600061439682614817565b91506143a183614817565b9250826143b1576143b0614941565b5b828204905092915050565b6000808291508390505b6001851115614406578086048111156143e2576143e1614912565b5b60018516156143f15780820291505b80810290506143ff856149b0565b94506143c6565b94509492505050565b6000826000811461442757600181146144315761443a565b60019150506144f6565b829150506144f6565b508161444957600090506144f6565b600190506000821360018114614466576000811461447e57614492565b82860483111561447957614478614912565b5b614492565b82860583121561449157614490614912565b5b5b5060018316156144a0578190505b81820291506144ae836149b0565b92506144bc858484846143bc565b9250905081850481116000821316156144d8576144d7614912565b5b81840581126000821216156144f0576144ef614912565b5b81810290505b949350505050565b6000614509826147d3565b915061451483614831565b92506145627f7fffffffffffffffffffffffffffffffffffffffffffffffffffffffffffffff7f8000000000000000000000000000000000000000000000000000000000000000858561440f565b905092915050565b6000614575826147d3565b9150614580836147d3565b9250827f7fffffffffffffffffffffffffffffffffffffffffffffffffffffffffffffff04821160008413600084131616156145bf576145be614912565b5b817f800000000000000000000000000000000000000000000000000000000000000005831260008412600084131616156145fc576145fb614912565b5b827f8000000000000000000000000000000000000000000000000000000000000000058212600084136000841216161561463957614638614912565b5b827f7fffffffffffffffffffffffffffffffffffffffffffffffffffffffffffffff058212600084126000841216161561467657614675614912565b5b828202905092915050565b600061468c82614817565b915061469783614817565b9250817fffffffffffffffffffffffffffffffffffffffffffffffffffffffffffffffff04831182151516156146d0576146cf614912565b5b828202905092915050565b60006146e6826147d3565b91506146f1836147d3565b9250827f80000000000000000000000000000000000000000000000000000000000000000182126000841215161561472c5761472b614912565b5b827f7fffffffffffffffffffffffffffffffffffffffffffffffffffffffffffffff01821360008412161561476457614763614912565b5b828203905092915050565b600061477a82614817565b915061478583614817565b92508282101561479857614797614912565b5b828203905092915050565b60006147ae826147f7565b9050919050565b60006147c0826147f7565b9050919050565b60008115159050919050565b6000819050919050565b60006dffffffffffffffffffffffffffff82169050919050565b600073ffffffffffffffffffffffffffffffffffffffff82169050919050565b6000819050919050565b600063ffffffff82169050919050565b600060ff82169050919050565b82818337600083830152505050565b60005b8381101561486b578082015181840152602081019050614850565b8381111561487a576000848401525b50505050565b600061488b82614817565b91507fffffffffffffffffffffffffffffffffffffffffffffffffffffffffffffffff8214156148be576148bd614912565b5b600182019050919050565b60006148d4826147d3565b91507f800000000000000000000000000000000000000000000000000000000000000082141561490757614906614912565b5b816000039050919050565b7f4e487b7100000000000000000000000000000000000000000000000000000000600052601160045260246000fd5b7f4e487b7100000000000000000000000000000000000000000000000000000000600052601260045260246000fd5b7f4e487b7100000000000000000000000000000000000000000000000000000000600052604160045260246000fd5b6000601f19601f8301169050919050565b60008160011c9050919050565b6149c6816147a3565b81146149d157600080fd5b50565b6149dd816147b5565b81146149e857600080fd5b50565b6149f4816147c7565b81146149ff57600080fd5b50565b614a0b816147d3565b8114614a1657600080fd5b50565b614a22816147dd565b8114614a2d57600080fd5b50565b614a3981614817565b8114614a4457600080fd5b50565b614a5081614821565b8114614a5b57600080fd5b5056fea264697066735822122052dce12c5a8670fd60780f4ca9b85f451001d89e3f0c8e6b4d57e4f872acb2fb64736f6c63430008000033",
  "immutableReferences": {
    "70": [
      {
        "length": 32,
        "start": 4545
      }
    ]
  },
  "source": "//SPDX-License-Identifier: Unlicense\r\npragma solidity ^0.8.0;\r\npragma abicoder v2;\r\n\r\nimport '../FlashLoaner.sol';\r\n\r\ncontract InternalFuncTest is FlashBot {\r\n    constructor() FlashBot(address(1)) {}\r\n\r\n    function _calcBorrowAmount(OrderedReserves memory reserves) public pure returns (uint256) {\r\n        return calcBorrowAmount(reserves);\r\n    }\r\n\r\n    function _calcSolutionForQuadratic(\r\n        int256 a,\r\n        int256 b,\r\n        int256 c\r\n    ) public pure returns (int256, int256) {\r\n        return calcSolutionForQuadratic(a, b, c);\r\n    }\r\n\r\n    function _sqrt(uint256 n) public pure returns (uint256) {\r\n        return sqrt(n);\r\n    }\r\n}\r\n",
  "sourcePath": "C:/Users/kerpr/Desktop/AMM_Arb_testing/contracts/test/InternalFuncTest.sol",
  "compiler": {
    "name": "solc",
    "version": "0.8.0+commit.c7dfd78e.Emscripten.clang"
  },
  "schemaVersion": "3.4.1",
  "updatedAt": "2021-06-01T22:30:26.504Z",
  "devdoc": {
    "kind": "dev",
    "methods": {
      "flashArbitrage(address,address)": {
        "details": "Two pools must contains same token pair"
      },
      "owner()": {
        "details": "Returns the address of the current owner."
      },
      "renounceOwnership()": {
        "details": "Leaves the contract without owner. It will not be possible to call `onlyOwner` functions anymore. Can only be called by the current owner. NOTE: Renouncing ownership will leave the contract without an owner, thereby removing any functionality that is only available to the owner."
      },
      "transferOwnership(address)": {
        "details": "Transfers ownership of the contract to a new account (`newOwner`). Can only be called by the current owner."
      }
    },
    "version": 1
  },
  "userdoc": {
    "kind": "user",
    "methods": {
      "flashArbitrage(address,address)": {
        "notice": "Do an arbitrage between two Uniswap-like AMM pools"
      },
      "getProfit(address,address)": {
        "notice": "Calculate how much profit we can by arbitraging between two pools"
      }
    },
    "version": 1
  }
}